{
  "contractName": "CoTax",
  "abi": [
    {
      "inputs": [],
      "stateMutability": "nonpayable",
      "type": "constructor"
    },
    {
      "anonymous": false,
      "inputs": [
        {
          "indexed": true,
          "internalType": "address",
          "name": "owner",
          "type": "address"
        },
        {
          "indexed": true,
          "internalType": "address",
          "name": "spender",
          "type": "address"
        },
        {
          "indexed": false,
          "internalType": "uint256",
          "name": "value",
          "type": "uint256"
        }
      ],
      "name": "Approval",
      "type": "event"
    },
    {
      "anonymous": false,
      "inputs": [
        {
          "indexed": true,
          "internalType": "bytes32",
          "name": "role",
          "type": "bytes32"
        },
        {
          "indexed": true,
          "internalType": "bytes32",
          "name": "previousAdminRole",
          "type": "bytes32"
        },
        {
          "indexed": true,
          "internalType": "bytes32",
          "name": "newAdminRole",
          "type": "bytes32"
        }
      ],
      "name": "RoleAdminChanged",
      "type": "event"
    },
    {
      "anonymous": false,
      "inputs": [
        {
          "indexed": true,
          "internalType": "bytes32",
          "name": "role",
          "type": "bytes32"
        },
        {
          "indexed": true,
          "internalType": "address",
          "name": "account",
          "type": "address"
        },
        {
          "indexed": true,
          "internalType": "address",
          "name": "sender",
          "type": "address"
        }
      ],
      "name": "RoleGranted",
      "type": "event"
    },
    {
      "anonymous": false,
      "inputs": [
        {
          "indexed": true,
          "internalType": "bytes32",
          "name": "role",
          "type": "bytes32"
        },
        {
          "indexed": true,
          "internalType": "address",
          "name": "account",
          "type": "address"
        },
        {
          "indexed": true,
          "internalType": "address",
          "name": "sender",
          "type": "address"
        }
      ],
      "name": "RoleRevoked",
      "type": "event"
    },
    {
      "anonymous": false,
      "inputs": [
        {
          "indexed": true,
          "internalType": "address",
          "name": "from",
          "type": "address"
        },
        {
          "indexed": true,
          "internalType": "address",
          "name": "to",
          "type": "address"
        },
        {
          "indexed": false,
          "internalType": "uint256",
          "name": "value",
          "type": "uint256"
        }
      ],
      "name": "Transfer",
      "type": "event"
    },
    {
      "inputs": [],
      "name": "AGRICULTURE_ROLE",
      "outputs": [
        {
          "internalType": "bytes32",
          "name": "",
          "type": "bytes32"
        }
      ],
      "stateMutability": "view",
      "type": "function",
      "constant": true
    },
    {
      "inputs": [],
      "name": "DEFAULT_ADMIN_ROLE",
      "outputs": [
        {
          "internalType": "bytes32",
          "name": "",
          "type": "bytes32"
        }
      ],
      "stateMutability": "view",
      "type": "function",
      "constant": true
    },
    {
      "inputs": [],
      "name": "FOOD_ROLE",
      "outputs": [
        {
          "internalType": "bytes32",
          "name": "",
          "type": "bytes32"
        }
      ],
      "stateMutability": "view",
      "type": "function",
      "constant": true
    },
    {
      "inputs": [],
      "name": "HEAD_ROLE",
      "outputs": [
        {
          "internalType": "bytes32",
          "name": "",
          "type": "bytes32"
        }
      ],
      "stateMutability": "view",
      "type": "function",
      "constant": true
    },
    {
      "inputs": [],
      "name": "INDUSTRY_ROLE",
      "outputs": [
        {
          "internalType": "bytes32",
          "name": "",
          "type": "bytes32"
        }
      ],
      "stateMutability": "view",
      "type": "function",
      "constant": true
    },
    {
      "inputs": [],
      "name": "MANUFACTURING_ROLE",
      "outputs": [
        {
          "internalType": "bytes32",
          "name": "",
          "type": "bytes32"
        }
      ],
      "stateMutability": "view",
      "type": "function",
      "constant": true
    },
    {
      "inputs": [],
      "name": "MINTER_ROLE",
      "outputs": [
        {
          "internalType": "bytes32",
          "name": "",
          "type": "bytes32"
        }
      ],
      "stateMutability": "view",
      "type": "function",
      "constant": true
    },
    {
      "inputs": [],
      "name": "PAY_ROLE",
      "outputs": [
        {
          "internalType": "bytes32",
          "name": "",
          "type": "bytes32"
        }
      ],
      "stateMutability": "view",
      "type": "function",
      "constant": true
    },
    {
      "inputs": [],
      "name": "TECHNOLOGY_ROLE",
      "outputs": [
        {
          "internalType": "bytes32",
          "name": "",
          "type": "bytes32"
        }
      ],
      "stateMutability": "view",
      "type": "function",
      "constant": true
    },
    {
      "inputs": [
        {
          "internalType": "address",
          "name": "owner",
          "type": "address"
        },
        {
          "internalType": "address",
          "name": "spender",
          "type": "address"
        }
      ],
      "name": "allowance",
      "outputs": [
        {
          "internalType": "uint256",
          "name": "",
          "type": "uint256"
        }
      ],
      "stateMutability": "view",
      "type": "function",
      "constant": true
    },
    {
      "inputs": [
        {
          "internalType": "address",
          "name": "spender",
          "type": "address"
        },
        {
          "internalType": "uint256",
          "name": "amount",
          "type": "uint256"
        }
      ],
      "name": "approve",
      "outputs": [
        {
          "internalType": "bool",
          "name": "",
          "type": "bool"
        }
      ],
      "stateMutability": "nonpayable",
      "type": "function"
    },
    {
      "inputs": [
        {
          "internalType": "address",
          "name": "account",
          "type": "address"
        }
      ],
      "name": "balanceOf",
      "outputs": [
        {
          "internalType": "uint256",
          "name": "",
          "type": "uint256"
        }
      ],
      "stateMutability": "view",
      "type": "function",
      "constant": true
    },
    {
      "inputs": [],
      "name": "decimals",
      "outputs": [
        {
          "internalType": "uint8",
          "name": "",
          "type": "uint8"
        }
      ],
      "stateMutability": "view",
      "type": "function",
      "constant": true
    },
    {
      "inputs": [
        {
          "internalType": "address",
          "name": "spender",
          "type": "address"
        },
        {
          "internalType": "uint256",
          "name": "subtractedValue",
          "type": "uint256"
        }
      ],
      "name": "decreaseAllowance",
      "outputs": [
        {
          "internalType": "bool",
          "name": "",
          "type": "bool"
        }
      ],
      "stateMutability": "nonpayable",
      "type": "function"
    },
    {
      "inputs": [
        {
          "internalType": "bytes32",
          "name": "role",
          "type": "bytes32"
        }
      ],
      "name": "getRoleAdmin",
      "outputs": [
        {
          "internalType": "bytes32",
          "name": "",
          "type": "bytes32"
        }
      ],
      "stateMutability": "view",
      "type": "function",
      "constant": true
    },
    {
      "inputs": [
        {
          "internalType": "bytes32",
          "name": "role",
          "type": "bytes32"
        },
        {
          "internalType": "address",
          "name": "account",
          "type": "address"
        }
      ],
      "name": "grantRole",
      "outputs": [],
      "stateMutability": "nonpayable",
      "type": "function"
    },
    {
      "inputs": [
        {
          "internalType": "bytes32",
          "name": "role",
          "type": "bytes32"
        },
        {
          "internalType": "address",
          "name": "account",
          "type": "address"
        }
      ],
      "name": "hasRole",
      "outputs": [
        {
          "internalType": "bool",
          "name": "",
          "type": "bool"
        }
      ],
      "stateMutability": "view",
      "type": "function",
      "constant": true
    },
    {
      "inputs": [
        {
          "internalType": "address",
          "name": "spender",
          "type": "address"
        },
        {
          "internalType": "uint256",
          "name": "addedValue",
          "type": "uint256"
        }
      ],
      "name": "increaseAllowance",
      "outputs": [
        {
          "internalType": "bool",
          "name": "",
          "type": "bool"
        }
      ],
      "stateMutability": "nonpayable",
      "type": "function"
    },
    {
      "inputs": [],
      "name": "name",
      "outputs": [
        {
          "internalType": "string",
          "name": "",
          "type": "string"
        }
      ],
      "stateMutability": "view",
      "type": "function",
      "constant": true
    },
    {
      "inputs": [
        {
          "internalType": "bytes32",
          "name": "role",
          "type": "bytes32"
        },
        {
          "internalType": "address",
          "name": "account",
          "type": "address"
        }
      ],
      "name": "renounceRole",
      "outputs": [],
      "stateMutability": "nonpayable",
      "type": "function"
    },
    {
      "inputs": [
        {
          "internalType": "bytes32",
          "name": "role",
          "type": "bytes32"
        },
        {
          "internalType": "address",
          "name": "account",
          "type": "address"
        }
      ],
      "name": "revokeRole",
      "outputs": [],
      "stateMutability": "nonpayable",
      "type": "function"
    },
    {
      "inputs": [
        {
          "internalType": "bytes4",
          "name": "interfaceId",
          "type": "bytes4"
        }
      ],
      "name": "supportsInterface",
      "outputs": [
        {
          "internalType": "bool",
          "name": "",
          "type": "bool"
        }
      ],
      "stateMutability": "view",
      "type": "function",
      "constant": true
    },
    {
      "inputs": [],
      "name": "symbol",
      "outputs": [
        {
          "internalType": "string",
          "name": "",
          "type": "string"
        }
      ],
      "stateMutability": "view",
      "type": "function",
      "constant": true
    },
    {
      "inputs": [],
      "name": "totalSupply",
      "outputs": [
        {
          "internalType": "uint256",
          "name": "",
          "type": "uint256"
        }
      ],
      "stateMutability": "view",
      "type": "function",
      "constant": true
    },
    {
      "inputs": [
        {
          "internalType": "address",
          "name": "to",
          "type": "address"
        },
        {
          "internalType": "uint256",
          "name": "amount",
          "type": "uint256"
        }
      ],
      "name": "transfer",
      "outputs": [
        {
          "internalType": "bool",
          "name": "",
          "type": "bool"
        }
      ],
      "stateMutability": "nonpayable",
      "type": "function"
    },
    {
      "inputs": [
        {
          "internalType": "address",
          "name": "from",
          "type": "address"
        },
        {
          "internalType": "address",
          "name": "to",
          "type": "address"
        },
        {
          "internalType": "uint256",
          "name": "amount",
          "type": "uint256"
        }
      ],
      "name": "transferFrom",
      "outputs": [
        {
          "internalType": "bool",
          "name": "",
          "type": "bool"
        }
      ],
      "stateMutability": "nonpayable",
      "type": "function"
    },
    {
      "inputs": [
        {
          "internalType": "address",
          "name": "_owner",
          "type": "address"
        },
        {
          "internalType": "address",
          "name": "_to",
          "type": "address"
        },
        {
          "internalType": "uint256",
          "name": "_amt",
          "type": "uint256"
        }
      ],
      "name": "Transfer_to_gov",
      "outputs": [],
      "stateMutability": "nonpayable",
      "type": "function"
    },
    {
      "inputs": [
        {
          "internalType": "uint256",
          "name": "amount",
          "type": "uint256"
        }
      ],
      "name": "mint",
      "outputs": [],
      "stateMutability": "nonpayable",
      "type": "function"
    }
  ],
  "bytecode": "0x60806040523480156200001157600080fd5b506040518060400160405280600581526020017f436f5461780000000000000000000000000000000000000000000000000000008152506040518060400160405280600481526020017f464f4f4c0000000000000000000000000000000000000000000000000000000081525081600390805190602001906200009692919062000454565b508060049080519060200190620000af92919062000454565b505050620000f033620000c76200016f60201b60201c565b600a620000d591906200069e565b6107d0620000e49190620006ef565b6200017860201b60201c565b620001056000801b33620002e560201b60201c565b620001377f9f2df0fed2c77648de5860a4cc508cd0818c85b8b8a1ab4ceeef8d981c8956a633620002e560201b60201c565b620001697fa51b6b45fbf50a47b1a527fdd6887d77c11bd552d6841fb0dad35c15e3adbd1133620002e560201b60201c565b620008c2565b60006012905090565b600073ffffffffffffffffffffffffffffffffffffffff168273ffffffffffffffffffffffffffffffffffffffff1603620001ea576040517f08c379a0000000000000000000000000000000000000000000000000000000008152600401620001e190620007b1565b60405180910390fd5b620001fe60008383620003d760201b60201c565b8060026000828254620002129190620007d3565b92505081905550806000808473ffffffffffffffffffffffffffffffffffffffff1673ffffffffffffffffffffffffffffffffffffffff168152602001908152602001600020600082825401925050819055508173ffffffffffffffffffffffffffffffffffffffff16600073ffffffffffffffffffffffffffffffffffffffff167fddf252ad1be2c89b69c2b068fc378daa952ba7f163c4a11628f55a4df523b3ef83604051620002c5919062000841565b60405180910390a3620002e160008383620003dc60201b60201c565b5050565b620002f78282620003e160201b60201c565b620003d35760016005600084815260200190815260200160002060000160008373ffffffffffffffffffffffffffffffffffffffff1673ffffffffffffffffffffffffffffffffffffffff16815260200190815260200160002060006101000a81548160ff021916908315150217905550620003786200044c60201b60201c565b73ffffffffffffffffffffffffffffffffffffffff168173ffffffffffffffffffffffffffffffffffffffff16837f2f8788117e7eff1d82e926ec794901d17c78024a50270940304540a733656f0d60405160405180910390a45b5050565b505050565b505050565b60006005600084815260200190815260200160002060000160008373ffffffffffffffffffffffffffffffffffffffff1673ffffffffffffffffffffffffffffffffffffffff16815260200190815260200160002060009054906101000a900460ff16905092915050565b600033905090565b82805462000462906200088d565b90600052602060002090601f016020900481019282620004865760008555620004d2565b82601f10620004a157805160ff1916838001178555620004d2565b82800160010185558215620004d2579182015b82811115620004d1578251825591602001919060010190620004b4565b5b509050620004e19190620004e5565b5090565b5b8082111562000500576000816000905550600101620004e6565b5090565b7f4e487b7100000000000000000000000000000000000000000000000000000000600052601160045260246000fd5b60008160011c9050919050565b6000808291508390505b600185111562000592578086048111156200056a576200056962000504565b5b60018516156200057a5780820291505b80810290506200058a8562000533565b94506200054a565b94509492505050565b600082620005ad576001905062000680565b81620005bd576000905062000680565b8160018114620005d65760028114620005e15762000617565b600191505062000680565b60ff841115620005f657620005f562000504565b5b8360020a91508482111562000610576200060f62000504565b5b5062000680565b5060208310610133831016604e8410600b8410161715620006515782820a9050838111156200064b576200064a62000504565b5b62000680565b62000660848484600162000540565b925090508184048111156200067a576200067962000504565b5b81810290505b9392505050565b6000819050919050565b600060ff82169050919050565b6000620006ab8262000687565b9150620006b88362000691565b9250620006e77fffffffffffffffffffffffffffffffffffffffffffffffffffffffffffffffff84846200059b565b905092915050565b6000620006fc8262000687565b9150620007098362000687565b9250817fffffffffffffffffffffffffffffffffffffffffffffffffffffffffffffffff048311821515161562000745576200074462000504565b5b828202905092915050565b600082825260208201905092915050565b7f45524332303a206d696e7420746f20746865207a65726f206164647265737300600082015250565b600062000799601f8362000750565b9150620007a68262000761565b602082019050919050565b60006020820190508181036000830152620007cc816200078a565b9050919050565b6000620007e08262000687565b9150620007ed8362000687565b9250827fffffffffffffffffffffffffffffffffffffffffffffffffffffffffffffffff0382111562000825576200082462000504565b5b828201905092915050565b6200083b8162000687565b82525050565b600060208201905062000858600083018462000830565b92915050565b7f4e487b7100000000000000000000000000000000000000000000000000000000600052602260045260246000fd5b60006002820490506001821680620008a657607f821691505b602082108103620008bc57620008bb6200085e565b5b50919050565b61253b80620008d26000396000f3fe608060405234801561001057600080fd5b50600436106101c45760003560e01c806391d14854116100f9578063c1e6081211610097578063dd62ed3e11610071578063dd62ed3e14610533578063dfedacb314610563578063e97283ca14610581578063ffb2f6cb1461059f576101c4565b8063c1e60812146104db578063d5391393146104f9578063d547741f14610517576101c4565b8063a0712d68116100d3578063a0712d6814610441578063a217fddf1461045d578063a457c2d71461047b578063a9059cbb146104ab576101c4565b806391d14854146103d557806395d89b411461040557806396167d1b14610423576101c4565b80632f2ff15d11610166578063395093511161014057806339509351146103395780633bf2a9f4146103695780636d3491ec1461038757806370a08231146103a5576101c4565b80632f2ff15d146102e3578063313ce567146102ff57806336568abe1461031d576101c4565b806318160ddd116101a257806318160ddd146102475780632241862b1461026557806323b872dd14610283578063248a9ca3146102b3576101c4565b806301ffc9a7146101c957806306fdde03146101f9578063095ea7b314610217575b600080fd5b6101e360048036038101906101de9190611876565b6105bb565b6040516101f091906118be565b60405180910390f35b610201610635565b60405161020e9190611972565b60405180910390f35b610231600480360381019061022c9190611a28565b6106c7565b60405161023e91906118be565b60405180910390f35b61024f6106ea565b60405161025c9190611a77565b60405180910390f35b61026d6106f4565b60405161027a9190611aab565b60405180910390f35b61029d60048036038101906102989190611ac6565b610718565b6040516102aa91906118be565b60405180910390f35b6102cd60048036038101906102c89190611b45565b610747565b6040516102da9190611aab565b60405180910390f35b6102fd60048036038101906102f89190611b72565b610767565b005b610307610788565b6040516103149190611bce565b60405180910390f35b61033760048036038101906103329190611b72565b610791565b005b610353600480360381019061034e9190611a28565b610814565b60405161036091906118be565b60405180910390f35b61037161084b565b60405161037e9190611aab565b60405180910390f35b61038f61086f565b60405161039c9190611aab565b60405180910390f35b6103bf60048036038101906103ba9190611be9565b610893565b6040516103cc9190611a77565b60405180910390f35b6103ef60048036038101906103ea9190611b72565b6108db565b6040516103fc91906118be565b60405180910390f35b61040d610946565b60405161041a9190611972565b60405180910390f35b61042b6109d8565b6040516104389190611aab565b60405180910390f35b61045b60048036038101906104569190611c16565b6109fc565b005b610465610aa3565b6040516104729190611aab565b60405180910390f35b61049560048036038101906104909190611a28565b610aaa565b6040516104a291906118be565b60405180910390f35b6104c560048036038101906104c09190611a28565b610b21565b6040516104d291906118be565b60405180910390f35b6104e3610b44565b6040516104f09190611aab565b60405180910390f35b610501610b68565b60405161050e9190611aab565b60405180910390f35b610531600480360381019061052c9190611b72565b610b8c565b005b61054d60048036038101906105489190611c43565b610bad565b60405161055a9190611a77565b60405180910390f35b61056b610c34565b6040516105789190611aab565b60405180910390f35b610589610c58565b6040516105969190611aab565b60405180910390f35b6105b960048036038101906105b49190611ac6565b610c7c565b005b60007f7965db0b000000000000000000000000000000000000000000000000000000007bffffffffffffffffffffffffffffffffffffffffffffffffffffffff1916827bffffffffffffffffffffffffffffffffffffffffffffffffffffffff1916148061062e575061062d82610cb7565b5b9050919050565b60606003805461064490611cb2565b80601f016020809104026020016040519081016040528092919081815260200182805461067090611cb2565b80156106bd5780601f10610692576101008083540402835291602001916106bd565b820191906000526020600020905b8154815290600101906020018083116106a057829003601f168201915b5050505050905090565b6000806106d2610d21565b90506106df818585610d29565b600191505092915050565b6000600254905090565b7f0a6437be3d409e943b51a5a15faa0c00efa44eb7c8b707f3502502a406f3c7f881565b600080610723610d21565b9050610730858285610ef2565b61073b858585610f7e565b60019150509392505050565b600060056000838152602001908152602001600020600101549050919050565b61077082610747565b610779816111f4565b6107838383611208565b505050565b60006012905090565b610799610d21565b73ffffffffffffffffffffffffffffffffffffffff168173ffffffffffffffffffffffffffffffffffffffff1614610806576040517f08c379a00000000000000000000000000000000000000000000000000000000081526004016107fd90611d55565b60405180910390fd5b61081082826112e9565b5050565b60008061081f610d21565b90506108408185856108318589610bad565b61083b9190611da4565b610d29565b600191505092915050565b7fd7aa2ddfa4e381128202bf365b7e0a176f2fca6cdf2f23c2b0a6f4393769589081565b7f067a7283e9fa435a2cc6bf2bc9d402b66be84693c88be7e59ff28ee68238b50581565b60008060008373ffffffffffffffffffffffffffffffffffffffff1673ffffffffffffffffffffffffffffffffffffffff168152602001908152602001600020549050919050565b60006005600084815260200190815260200160002060000160008373ffffffffffffffffffffffffffffffffffffffff1673ffffffffffffffffffffffffffffffffffffffff16815260200190815260200160002060009054906101000a900460ff16905092915050565b60606004805461095590611cb2565b80601f016020809104026020016040519081016040528092919081815260200182805461098190611cb2565b80156109ce5780601f106109a3576101008083540402835291602001916109ce565b820191906000526020600020905b8154815290600101906020018083116109b157829003601f168201915b5050505050905090565b7fa51b6b45fbf50a47b1a527fdd6887d77c11bd552d6841fb0dad35c15e3adbd1181565b610a267f9f2df0fed2c77648de5860a4cc508cd0818c85b8b8a1ab4ceeef8d981c8956a6336108db565b80610a575750610a567fa51b6b45fbf50a47b1a527fdd6887d77c11bd552d6841fb0dad35c15e3adbd11336108db565b5b610a96576040517f08c379a0000000000000000000000000000000000000000000000000000000008152600401610a8d90611e46565b60405180910390fd5b610aa033826113cb565b50565b6000801b81565b600080610ab5610d21565b90506000610ac38286610bad565b905083811015610b08576040517f08c379a0000000000000000000000000000000000000000000000000000000008152600401610aff90611ed8565b60405180910390fd5b610b158286868403610d29565b60019250505092915050565b600080610b2c610d21565b9050610b39818585610f7e565b600191505092915050565b7f67ece15bd133b11598a907fb44de3d08dcf88cadd66731837f0274813fae477481565b7f9f2df0fed2c77648de5860a4cc508cd0818c85b8b8a1ab4ceeef8d981c8956a681565b610b9582610747565b610b9e816111f4565b610ba883836112e9565b505050565b6000600160008473ffffffffffffffffffffffffffffffffffffffff1673ffffffffffffffffffffffffffffffffffffffff16815260200190815260200160002060008373ffffffffffffffffffffffffffffffffffffffff1673ffffffffffffffffffffffffffffffffffffffff16815260200190815260200160002054905092915050565b7f8c033fe0d299513a093a57259d2aadd8834281ceab2965b2eba7e0666f08c6bb81565b7f85fc32380ab4247f891d38c2dfc69761709c5069b06e5700b787d65c3428817f81565b7fd7aa2ddfa4e381128202bf365b7e0a176f2fca6cdf2f23c2b0a6f43937695890610ca6816111f4565b610cb1848484610f7e565b50505050565b60007f01ffc9a7000000000000000000000000000000000000000000000000000000007bffffffffffffffffffffffffffffffffffffffffffffffffffffffff1916827bffffffffffffffffffffffffffffffffffffffffffffffffffffffff1916149050919050565b600033905090565b600073ffffffffffffffffffffffffffffffffffffffff168373ffffffffffffffffffffffffffffffffffffffff1603610d98576040517f08c379a0000000000000000000000000000000000000000000000000000000008152600401610d8f90611f6a565b60405180910390fd5b600073ffffffffffffffffffffffffffffffffffffffff168273ffffffffffffffffffffffffffffffffffffffff1603610e07576040517f08c379a0000000000000000000000000000000000000000000000000000000008152600401610dfe90611ffc565b60405180910390fd5b80600160008573ffffffffffffffffffffffffffffffffffffffff1673ffffffffffffffffffffffffffffffffffffffff16815260200190815260200160002060008473ffffffffffffffffffffffffffffffffffffffff1673ffffffffffffffffffffffffffffffffffffffff168152602001908152602001600020819055508173ffffffffffffffffffffffffffffffffffffffff168373ffffffffffffffffffffffffffffffffffffffff167f8c5be1e5ebec7d5bd14f71427d1e84f3dd0314c0f7b2291e5b200ac8c7c3b92583604051610ee59190611a77565b60405180910390a3505050565b6000610efe8484610bad565b90507fffffffffffffffffffffffffffffffffffffffffffffffffffffffffffffffff8114610f785781811015610f6a576040517f08c379a0000000000000000000000000000000000000000000000000000000008152600401610f6190612068565b60405180910390fd5b610f778484848403610d29565b5b50505050565b600073ffffffffffffffffffffffffffffffffffffffff168373ffffffffffffffffffffffffffffffffffffffff1603610fed576040517f08c379a0000000000000000000000000000000000000000000000000000000008152600401610fe4906120fa565b60405180910390fd5b600073ffffffffffffffffffffffffffffffffffffffff168273ffffffffffffffffffffffffffffffffffffffff160361105c576040517f08c379a00000000000000000000000000000000000000000000000000000000081526004016110539061218c565b60405180910390fd5b611067838383611521565b60008060008573ffffffffffffffffffffffffffffffffffffffff1673ffffffffffffffffffffffffffffffffffffffff168152602001908152602001600020549050818110156110ed576040517f08c379a00000000000000000000000000000000000000000000000000000000081526004016110e49061221e565b60405180910390fd5b8181036000808673ffffffffffffffffffffffffffffffffffffffff1673ffffffffffffffffffffffffffffffffffffffff16815260200190815260200160002081905550816000808573ffffffffffffffffffffffffffffffffffffffff1673ffffffffffffffffffffffffffffffffffffffff168152602001908152602001600020600082825401925050819055508273ffffffffffffffffffffffffffffffffffffffff168473ffffffffffffffffffffffffffffffffffffffff167fddf252ad1be2c89b69c2b068fc378daa952ba7f163c4a11628f55a4df523b3ef846040516111db9190611a77565b60405180910390a36111ee848484611526565b50505050565b61120581611200610d21565b61152b565b50565b61121282826108db565b6112e55760016005600084815260200190815260200160002060000160008373ffffffffffffffffffffffffffffffffffffffff1673ffffffffffffffffffffffffffffffffffffffff16815260200190815260200160002060006101000a81548160ff02191690831515021790555061128a610d21565b73ffffffffffffffffffffffffffffffffffffffff168173ffffffffffffffffffffffffffffffffffffffff16837f2f8788117e7eff1d82e926ec794901d17c78024a50270940304540a733656f0d60405160405180910390a45b5050565b6112f382826108db565b156113c75760006005600084815260200190815260200160002060000160008373ffffffffffffffffffffffffffffffffffffffff1673ffffffffffffffffffffffffffffffffffffffff16815260200190815260200160002060006101000a81548160ff02191690831515021790555061136c610d21565b73ffffffffffffffffffffffffffffffffffffffff168173ffffffffffffffffffffffffffffffffffffffff16837ff6391f5c32d9c69d2a47ea670b442974b53935d1edc7fd64eb21e047a839171b60405160405180910390a45b5050565b600073ffffffffffffffffffffffffffffffffffffffff168273ffffffffffffffffffffffffffffffffffffffff160361143a576040517f08c379a00000000000000000000000000000000000000000000000000000000081526004016114319061228a565b60405180910390fd5b61144660008383611521565b80600260008282546114589190611da4565b92505081905550806000808473ffffffffffffffffffffffffffffffffffffffff1673ffffffffffffffffffffffffffffffffffffffff168152602001908152602001600020600082825401925050819055508173ffffffffffffffffffffffffffffffffffffffff16600073ffffffffffffffffffffffffffffffffffffffff167fddf252ad1be2c89b69c2b068fc378daa952ba7f163c4a11628f55a4df523b3ef836040516115099190611a77565b60405180910390a361151d60008383611526565b5050565b505050565b505050565b61153582826108db565b6115ac57611542816115b0565b6115508360001c60206115dd565b60405160200161156192919061237e565b6040516020818303038152906040526040517f08c379a00000000000000000000000000000000000000000000000000000000081526004016115a39190611972565b60405180910390fd5b5050565b60606115d68273ffffffffffffffffffffffffffffffffffffffff16601460ff166115dd565b9050919050565b6060600060028360026115f091906123b8565b6115fa9190611da4565b67ffffffffffffffff81111561161357611612612412565b5b6040519080825280601f01601f1916602001820160405280156116455781602001600182028036833780820191505090505b5090507f30000000000000000000000000000000000000000000000000000000000000008160008151811061167d5761167c612441565b5b60200101907effffffffffffffffffffffffffffffffffffffffffffffffffffffffffffff1916908160001a9053507f7800000000000000000000000000000000000000000000000000000000000000816001815181106116e1576116e0612441565b5b60200101907effffffffffffffffffffffffffffffffffffffffffffffffffffffffffffff1916908160001a9053506000600184600261172191906123b8565b61172b9190611da4565b90505b60018111156117cb577f3031323334353637383961626364656600000000000000000000000000000000600f86166010811061176d5761176c612441565b5b1a60f81b82828151811061178457611783612441565b5b60200101907effffffffffffffffffffffffffffffffffffffffffffffffffffffffffffff1916908160001a905350600485901c9450806117c490612470565b905061172e565b506000841461180f576040517f08c379a0000000000000000000000000000000000000000000000000000000008152600401611806906124e5565b60405180910390fd5b8091505092915050565b600080fd5b60007fffffffff0000000000000000000000000000000000000000000000000000000082169050919050565b6118538161181e565b811461185e57600080fd5b50565b6000813590506118708161184a565b92915050565b60006020828403121561188c5761188b611819565b5b600061189a84828501611861565b91505092915050565b60008115159050919050565b6118b8816118a3565b82525050565b60006020820190506118d360008301846118af565b92915050565b600081519050919050565b600082825260208201905092915050565b60005b838110156119135780820151818401526020810190506118f8565b83811115611922576000848401525b50505050565b6000601f19601f8301169050919050565b6000611944826118d9565b61194e81856118e4565b935061195e8185602086016118f5565b61196781611928565b840191505092915050565b6000602082019050818103600083015261198c8184611939565b905092915050565b600073ffffffffffffffffffffffffffffffffffffffff82169050919050565b60006119bf82611994565b9050919050565b6119cf816119b4565b81146119da57600080fd5b50565b6000813590506119ec816119c6565b92915050565b6000819050919050565b611a05816119f2565b8114611a1057600080fd5b50565b600081359050611a22816119fc565b92915050565b60008060408385031215611a3f57611a3e611819565b5b6000611a4d858286016119dd565b9250506020611a5e85828601611a13565b9150509250929050565b611a71816119f2565b82525050565b6000602082019050611a8c6000830184611a68565b92915050565b6000819050919050565b611aa581611a92565b82525050565b6000602082019050611ac06000830184611a9c565b92915050565b600080600060608486031215611adf57611ade611819565b5b6000611aed868287016119dd565b9350506020611afe868287016119dd565b9250506040611b0f86828701611a13565b9150509250925092565b611b2281611a92565b8114611b2d57600080fd5b50565b600081359050611b3f81611b19565b92915050565b600060208284031215611b5b57611b5a611819565b5b6000611b6984828501611b30565b91505092915050565b60008060408385031215611b8957611b88611819565b5b6000611b9785828601611b30565b9250506020611ba8858286016119dd565b9150509250929050565b600060ff82169050919050565b611bc881611bb2565b82525050565b6000602082019050611be36000830184611bbf565b92915050565b600060208284031215611bff57611bfe611819565b5b6000611c0d848285016119dd565b91505092915050565b600060208284031215611c2c57611c2b611819565b5b6000611c3a84828501611a13565b91505092915050565b60008060408385031215611c5a57611c59611819565b5b6000611c68858286016119dd565b9250506020611c79858286016119dd565b9150509250929050565b7f4e487b7100000000000000000000000000000000000000000000000000000000600052602260045260246000fd5b60006002820490506001821680611cca57607f821691505b602082108103611cdd57611cdc611c83565b5b50919050565b7f416363657373436f6e74726f6c3a2063616e206f6e6c792072656e6f756e636560008201527f20726f6c657320666f722073656c660000000000000000000000000000000000602082015250565b6000611d3f602f836118e4565b9150611d4a82611ce3565b604082019050919050565b60006020820190508181036000830152611d6e81611d32565b9050919050565b7f4e487b7100000000000000000000000000000000000000000000000000000000600052601160045260246000fd5b6000611daf826119f2565b9150611dba836119f2565b9250827fffffffffffffffffffffffffffffffffffffffffffffffffffffffffffffffff03821115611def57611dee611d75565b5b828201905092915050565b7f43616c6c6572206973206e6f742061206d696e746572206f7220686561640000600082015250565b6000611e30601e836118e4565b9150611e3b82611dfa565b602082019050919050565b60006020820190508181036000830152611e5f81611e23565b9050919050565b7f45524332303a2064656372656173656420616c6c6f77616e63652062656c6f7760008201527f207a65726f000000000000000000000000000000000000000000000000000000602082015250565b6000611ec26025836118e4565b9150611ecd82611e66565b604082019050919050565b60006020820190508181036000830152611ef181611eb5565b9050919050565b7f45524332303a20617070726f76652066726f6d20746865207a65726f2061646460008201527f7265737300000000000000000000000000000000000000000000000000000000602082015250565b6000611f546024836118e4565b9150611f5f82611ef8565b604082019050919050565b60006020820190508181036000830152611f8381611f47565b9050919050565b7f45524332303a20617070726f766520746f20746865207a65726f20616464726560008201527f7373000000000000000000000000000000000000000000000000000000000000602082015250565b6000611fe66022836118e4565b9150611ff182611f8a565b604082019050919050565b6000602082019050818103600083015261201581611fd9565b9050919050565b7f45524332303a20696e73756666696369656e7420616c6c6f77616e6365000000600082015250565b6000612052601d836118e4565b915061205d8261201c565b602082019050919050565b6000602082019050818103600083015261208181612045565b9050919050565b7f45524332303a207472616e736665722066726f6d20746865207a65726f20616460008201527f6472657373000000000000000000000000000000000000000000000000000000602082015250565b60006120e46025836118e4565b91506120ef82612088565b604082019050919050565b60006020820190508181036000830152612113816120d7565b9050919050565b7f45524332303a207472616e7366657220746f20746865207a65726f206164647260008201527f6573730000000000000000000000000000000000000000000000000000000000602082015250565b60006121766023836118e4565b91506121818261211a565b604082019050919050565b600060208201905081810360008301526121a581612169565b9050919050565b7f45524332303a207472616e7366657220616d6f756e742065786365656473206260008201527f616c616e63650000000000000000000000000000000000000000000000000000602082015250565b60006122086026836118e4565b9150612213826121ac565b604082019050919050565b60006020820190508181036000830152612237816121fb565b9050919050565b7f45524332303a206d696e7420746f20746865207a65726f206164647265737300600082015250565b6000612274601f836118e4565b915061227f8261223e565b602082019050919050565b600060208201905081810360008301526122a381612267565b9050919050565b600081905092915050565b7f416363657373436f6e74726f6c3a206163636f756e7420000000000000000000600082015250565b60006122eb6017836122aa565b91506122f6826122b5565b601782019050919050565b600061230c826118d9565b61231681856122aa565b93506123268185602086016118f5565b80840191505092915050565b7f206973206d697373696e6720726f6c6520000000000000000000000000000000600082015250565b60006123686011836122aa565b915061237382612332565b601182019050919050565b6000612389826122de565b91506123958285612301565b91506123a08261235b565b91506123ac8284612301565b91508190509392505050565b60006123c3826119f2565b91506123ce836119f2565b9250817fffffffffffffffffffffffffffffffffffffffffffffffffffffffffffffffff048311821515161561240757612406611d75565b5b828202905092915050565b7f4e487b7100000000000000000000000000000000000000000000000000000000600052604160045260246000fd5b7f4e487b7100000000000000000000000000000000000000000000000000000000600052603260045260246000fd5b600061247b826119f2565b91506000820361248e5761248d611d75565b5b600182039050919050565b7f537472696e67733a20686578206c656e67746820696e73756666696369656e74600082015250565b60006124cf6020836118e4565b91506124da82612499565b602082019050919050565b600060208201905081810360008301526124fe816124c2565b905091905056fea264697066735822122013425349436b213d1c04048717032f8e4b601980e794c0bbab093adf271f857c64736f6c634300080e0033",
  "immutableReferences": {},
  "source": "// SPDX-License-Identifier: MIT\npragma solidity ^0.8.9;\n\nimport \"@openzeppelin/contracts/token/ERC20/ERC20.sol\";\nimport \"@openzeppelin/contracts/access/AccessControl.sol\";\n\ncontract CoTax is ERC20, AccessControl {\n    bytes32 public constant MINTER_ROLE = keccak256(\"MINTER_ROLE\");\n\n    constructor() ERC20(\"CoTax\", \"FOOL\") {\n        _mint(msg.sender, 2000 * 10**decimals());\n        _grantRole(DEFAULT_ADMIN_ROLE, msg.sender);\n        _grantRole(MINTER_ROLE, msg.sender);\n        _grantRole(HEAD_ROLE, msg.sender);\n    }\n\n    function Transfer_to_gov(\n        address _owner,\n        address _to,\n        uint256 _amt\n    ) public onlyRole(PAY_ROLE) {\n        _transfer(_owner, _to, _amt);\n    }\n\n    function mint(uint256 amount) public {\n        require(\n            hasRole(MINTER_ROLE, msg.sender) || hasRole(HEAD_ROLE, msg.sender),\n            \"Caller is not a minter or head\"\n        );\n        _mint(msg.sender, amount);\n    }\n}\n",
  "sourcePath": "/Users/yaksheshgupta/Desktop/TRINIT_teamLite_WEB01/BACKEND/contracts/CoTax.sol",
  "compiler": {
    "name": "solc",
    "version": "0.8.14+commit.80d49f37.Emscripten.clang"
  },
  "schemaVersion": "3.4.7",
  "updatedAt": "2023-02-11T23:43:07.606Z",
  "networkType": "ethereum",
  "devdoc": {
    "kind": "dev",
    "methods": {
      "allowance(address,address)": {
        "details": "See {IERC20-allowance}."
      },
      "approve(address,uint256)": {
        "details": "See {IERC20-approve}. NOTE: If `amount` is the maximum `uint256`, the allowance is not updated on `transferFrom`. This is semantically equivalent to an infinite approval. Requirements: - `spender` cannot be the zero address."
      },
      "balanceOf(address)": {
        "details": "See {IERC20-balanceOf}."
      },
      "decimals()": {
        "details": "Returns the number of decimals used to get its user representation. For example, if `decimals` equals `2`, a balance of `505` tokens should be displayed to a user as `5.05` (`505 / 10 ** 2`). Tokens usually opt for a value of 18, imitating the relationship between Ether and Wei. This is the value {ERC20} uses, unless this function is overridden; NOTE: This information is only used for _display_ purposes: it in no way affects any of the arithmetic of the contract, including {IERC20-balanceOf} and {IERC20-transfer}."
      },
      "decreaseAllowance(address,uint256)": {
        "details": "Atomically decreases the allowance granted to `spender` by the caller. This is an alternative to {approve} that can be used as a mitigation for problems described in {IERC20-approve}. Emits an {Approval} event indicating the updated allowance. Requirements: - `spender` cannot be the zero address. - `spender` must have allowance for the caller of at least `subtractedValue`."
      },
      "getRoleAdmin(bytes32)": {
        "details": "Returns the admin role that controls `role`. See {grantRole} and {revokeRole}. To change a role's admin, use {_setRoleAdmin}."
      },
      "grantRole(bytes32,address)": {
        "details": "Grants `role` to `account`. If `account` had not been already granted `role`, emits a {RoleGranted} event. Requirements: - the caller must have ``role``'s admin role. May emit a {RoleGranted} event."
      },
      "hasRole(bytes32,address)": {
        "details": "Returns `true` if `account` has been granted `role`."
      },
      "increaseAllowance(address,uint256)": {
        "details": "Atomically increases the allowance granted to `spender` by the caller. This is an alternative to {approve} that can be used as a mitigation for problems described in {IERC20-approve}. Emits an {Approval} event indicating the updated allowance. Requirements: - `spender` cannot be the zero address."
      },
      "name()": {
        "details": "Returns the name of the token."
      },
      "renounceRole(bytes32,address)": {
        "details": "Revokes `role` from the calling account. Roles are often managed via {grantRole} and {revokeRole}: this function's purpose is to provide a mechanism for accounts to lose their privileges if they are compromised (such as when a trusted device is misplaced). If the calling account had been revoked `role`, emits a {RoleRevoked} event. Requirements: - the caller must be `account`. May emit a {RoleRevoked} event."
      },
      "revokeRole(bytes32,address)": {
        "details": "Revokes `role` from `account`. If `account` had been granted `role`, emits a {RoleRevoked} event. Requirements: - the caller must have ``role``'s admin role. May emit a {RoleRevoked} event."
      },
      "supportsInterface(bytes4)": {
        "details": "See {IERC165-supportsInterface}."
      },
      "symbol()": {
        "details": "Returns the symbol of the token, usually a shorter version of the name."
      },
      "totalSupply()": {
        "details": "See {IERC20-totalSupply}."
      },
      "transfer(address,uint256)": {
        "details": "See {IERC20-transfer}. Requirements: - `to` cannot be the zero address. - the caller must have a balance of at least `amount`."
      },
      "transferFrom(address,address,uint256)": {
        "details": "See {IERC20-transferFrom}. Emits an {Approval} event indicating the updated allowance. This is not required by the EIP. See the note at the beginning of {ERC20}. NOTE: Does not update the allowance if the current allowance is the maximum `uint256`. Requirements: - `from` and `to` cannot be the zero address. - `from` must have a balance of at least `amount`. - the caller must have allowance for ``from``'s tokens of at least `amount`."
      }
    },
    "version": 1
  },
  "userdoc": {
    "kind": "user",
    "methods": {},
    "version": 1
  }
}