{
  "contractName": "Crowdsale_V0",
  "abi": [
    {
      "inputs": [
        {
          "internalType": "uint256",
          "name": "_rate",
          "type": "uint256"
        },
        {
          "internalType": "address",
          "name": "_wallet",
          "type": "address"
        },
        {
          "internalType": "contract ERC20",
          "name": "_token",
          "type": "address"
        }
      ],
      "stateMutability": "nonpayable",
      "type": "constructor"
    },
    {
      "anonymous": false,
      "inputs": [
        {
          "indexed": true,
          "internalType": "bytes32",
          "name": "role",
          "type": "bytes32"
        },
        {
          "indexed": true,
          "internalType": "bytes32",
          "name": "previousAdminRole",
          "type": "bytes32"
        },
        {
          "indexed": true,
          "internalType": "bytes32",
          "name": "newAdminRole",
          "type": "bytes32"
        }
      ],
      "name": "RoleAdminChanged",
      "type": "event"
    },
    {
      "anonymous": false,
      "inputs": [
        {
          "indexed": true,
          "internalType": "bytes32",
          "name": "role",
          "type": "bytes32"
        },
        {
          "indexed": true,
          "internalType": "address",
          "name": "account",
          "type": "address"
        },
        {
          "indexed": true,
          "internalType": "address",
          "name": "sender",
          "type": "address"
        }
      ],
      "name": "RoleGranted",
      "type": "event"
    },
    {
      "anonymous": false,
      "inputs": [
        {
          "indexed": true,
          "internalType": "bytes32",
          "name": "role",
          "type": "bytes32"
        },
        {
          "indexed": true,
          "internalType": "address",
          "name": "account",
          "type": "address"
        },
        {
          "indexed": true,
          "internalType": "address",
          "name": "sender",
          "type": "address"
        }
      ],
      "name": "RoleRevoked",
      "type": "event"
    },
    {
      "anonymous": false,
      "inputs": [
        {
          "indexed": true,
          "internalType": "address",
          "name": "purchaser",
          "type": "address"
        },
        {
          "indexed": true,
          "internalType": "address",
          "name": "beneficiary",
          "type": "address"
        },
        {
          "indexed": false,
          "internalType": "uint256",
          "name": "value",
          "type": "uint256"
        },
        {
          "indexed": false,
          "internalType": "uint256",
          "name": "amount",
          "type": "uint256"
        }
      ],
      "name": "TokenPurchase",
      "type": "event"
    },
    {
      "stateMutability": "payable",
      "type": "fallback"
    },
    {
      "inputs": [],
      "name": "AGRICULTURE_ROLE",
      "outputs": [
        {
          "internalType": "bytes32",
          "name": "",
          "type": "bytes32"
        }
      ],
      "stateMutability": "view",
      "type": "function"
    },
    {
      "inputs": [],
      "name": "DEFAULT_ADMIN_ROLE",
      "outputs": [
        {
          "internalType": "bytes32",
          "name": "",
          "type": "bytes32"
        }
      ],
      "stateMutability": "view",
      "type": "function"
    },
    {
      "inputs": [],
      "name": "FOOD_ROLE",
      "outputs": [
        {
          "internalType": "bytes32",
          "name": "",
          "type": "bytes32"
        }
      ],
      "stateMutability": "view",
      "type": "function"
    },
    {
      "inputs": [],
      "name": "HEAD_ROLE",
      "outputs": [
        {
          "internalType": "bytes32",
          "name": "",
          "type": "bytes32"
        }
      ],
      "stateMutability": "view",
      "type": "function"
    },
    {
      "inputs": [],
      "name": "INDUSTRY_ROLE",
      "outputs": [
        {
          "internalType": "bytes32",
          "name": "",
          "type": "bytes32"
        }
      ],
      "stateMutability": "view",
      "type": "function"
    },
    {
      "inputs": [],
      "name": "MANUFACTURING_ROLE",
      "outputs": [
        {
          "internalType": "bytes32",
          "name": "",
          "type": "bytes32"
        }
      ],
      "stateMutability": "view",
      "type": "function"
    },
    {
      "inputs": [],
      "name": "TECHNOLOGY_ROLE",
      "outputs": [
        {
          "internalType": "bytes32",
          "name": "",
          "type": "bytes32"
        }
      ],
      "stateMutability": "view",
      "type": "function"
    },
    {
      "inputs": [
        {
          "internalType": "bytes32",
          "name": "role",
          "type": "bytes32"
        }
      ],
      "name": "getRoleAdmin",
      "outputs": [
        {
          "internalType": "bytes32",
          "name": "",
          "type": "bytes32"
        }
      ],
      "stateMutability": "view",
      "type": "function"
    },
    {
      "inputs": [
        {
          "internalType": "bytes32",
          "name": "role",
          "type": "bytes32"
        },
        {
          "internalType": "address",
          "name": "account",
          "type": "address"
        }
      ],
      "name": "grantRole",
      "outputs": [],
      "stateMutability": "nonpayable",
      "type": "function"
    },
    {
      "inputs": [
        {
          "internalType": "bytes32",
          "name": "role",
          "type": "bytes32"
        },
        {
          "internalType": "address",
          "name": "account",
          "type": "address"
        }
      ],
      "name": "hasRole",
      "outputs": [
        {
          "internalType": "bool",
          "name": "",
          "type": "bool"
        }
      ],
      "stateMutability": "view",
      "type": "function"
    },
    {
      "inputs": [],
      "name": "rate",
      "outputs": [
        {
          "internalType": "uint256",
          "name": "",
          "type": "uint256"
        }
      ],
      "stateMutability": "view",
      "type": "function"
    },
    {
      "inputs": [
        {
          "internalType": "bytes32",
          "name": "role",
          "type": "bytes32"
        },
        {
          "internalType": "address",
          "name": "account",
          "type": "address"
        }
      ],
      "name": "renounceRole",
      "outputs": [],
      "stateMutability": "nonpayable",
      "type": "function"
    },
    {
      "inputs": [
        {
          "internalType": "bytes32",
          "name": "role",
          "type": "bytes32"
        },
        {
          "internalType": "address",
          "name": "account",
          "type": "address"
        }
      ],
      "name": "revokeRole",
      "outputs": [],
      "stateMutability": "nonpayable",
      "type": "function"
    },
    {
      "inputs": [
        {
          "internalType": "bytes4",
          "name": "interfaceId",
          "type": "bytes4"
        }
      ],
      "name": "supportsInterface",
      "outputs": [
        {
          "internalType": "bool",
          "name": "",
          "type": "bool"
        }
      ],
      "stateMutability": "view",
      "type": "function"
    },
    {
      "inputs": [],
      "name": "token",
      "outputs": [
        {
          "internalType": "contract ERC20",
          "name": "",
          "type": "address"
        }
      ],
      "stateMutability": "view",
      "type": "function"
    },
    {
      "inputs": [],
      "name": "wallet",
      "outputs": [
        {
          "internalType": "address",
          "name": "",
          "type": "address"
        }
      ],
      "stateMutability": "view",
      "type": "function"
    },
    {
      "inputs": [],
      "name": "weiRaised",
      "outputs": [
        {
          "internalType": "uint256",
          "name": "",
          "type": "uint256"
        }
      ],
      "stateMutability": "view",
      "type": "function"
    },
    {
      "stateMutability": "payable",
      "type": "receive"
    },
    {
      "inputs": [
        {
          "internalType": "address",
          "name": "_beneficiary",
          "type": "address"
        }
      ],
      "name": "buyTokens",
      "outputs": [],
      "stateMutability": "payable",
      "type": "function"
    }
  ],
  "bytecode": "0x60806040523480156200001157600080fd5b5060405162001b5738038062001b578339818101604052810190620000379190620002c2565b600083116200004557600080fd5b600073ffffffffffffffffffffffffffffffffffffffff168273ffffffffffffffffffffffffffffffffffffffff16036200007f57600080fd5b600073ffffffffffffffffffffffffffffffffffffffff168173ffffffffffffffffffffffffffffffffffffffff1603620000b957600080fd5b8260038190555081600260006101000a81548173ffffffffffffffffffffffffffffffffffffffff021916908373ffffffffffffffffffffffffffffffffffffffff16021790555080600160006101000a81548173ffffffffffffffffffffffffffffffffffffffff021916908373ffffffffffffffffffffffffffffffffffffffff1602179055508073ffffffffffffffffffffffffffffffffffffffff1663a9059cbb30683635c9adc5dea000006040518363ffffffff1660e01b8152600401620001889291906200037c565b6020604051808303816000875af1158015620001a8573d6000803e3d6000fd5b505050506040513d601f19601f82011682018060405250810190620001ce9190620003e6565b5050505062000418565b600080fd5b6000819050919050565b620001f281620001dd565b8114620001fe57600080fd5b50565b6000815190506200021281620001e7565b92915050565b600073ffffffffffffffffffffffffffffffffffffffff82169050919050565b6000620002458262000218565b9050919050565b620002578162000238565b81146200026357600080fd5b50565b60008151905062000277816200024c565b92915050565b60006200028a8262000238565b9050919050565b6200029c816200027d565b8114620002a857600080fd5b50565b600081519050620002bc8162000291565b92915050565b600080600060608486031215620002de57620002dd620001d8565b5b6000620002ee8682870162000201565b9350506020620003018682870162000266565b92505060406200031486828701620002ab565b9150509250925092565b620003298162000238565b82525050565b6000819050919050565b6000819050919050565b6000620003646200035e62000358846200032f565b62000339565b620001dd565b9050919050565b620003768162000343565b82525050565b60006040820190506200039360008301856200031e565b620003a260208301846200036b565b9392505050565b60008115159050919050565b620003c081620003a9565b8114620003cc57600080fd5b50565b600081519050620003e081620003b5565b92915050565b600060208284031215620003ff57620003fe620001d8565b5b60006200040f84828501620003cf565b91505092915050565b61172f80620004286000396000f3fe60806040526004361061010d5760003560e01c806391d1485411610095578063d547741f11610064578063d547741f14610389578063dfedacb3146103b2578063e97283ca146103dd578063ec8ac4d814610408578063fc0c546a146104245761011d565b806391d14854146102cb57806396167d1b14610308578063a217fddf14610333578063c1e608121461035e5761011d565b80632f2ff15d116100dc5780632f2ff15d146101f857806336568abe146102215780634042b66f1461024a578063521eb273146102755780636d3491ec146102a05761011d565b806301ffc9a7146101285780632241862b14610165578063248a9ca3146101905780632c4e722e146101cd5761011d565b3661011d5761011b3361044f565b005b6101263361044f565b005b34801561013457600080fd5b5061014f600480360381019061014a9190610f8e565b610543565b60405161015c9190610fd6565b60405180910390f35b34801561017157600080fd5b5061017a6105bd565b604051610187919061100a565b60405180910390f35b34801561019c57600080fd5b506101b760048036038101906101b29190611051565b6105e1565b6040516101c4919061100a565b60405180910390f35b3480156101d957600080fd5b506101e2610600565b6040516101ef9190611097565b60405180910390f35b34801561020457600080fd5b5061021f600480360381019061021a9190611110565b610606565b005b34801561022d57600080fd5b5061024860048036038101906102439190611110565b610627565b005b34801561025657600080fd5b5061025f6106aa565b60405161026c9190611097565b60405180910390f35b34801561028157600080fd5b5061028a6106b0565b604051610297919061115f565b60405180910390f35b3480156102ac57600080fd5b506102b56106d6565b6040516102c2919061100a565b60405180910390f35b3480156102d757600080fd5b506102f260048036038101906102ed9190611110565b6106fa565b6040516102ff9190610fd6565b60405180910390f35b34801561031457600080fd5b5061031d610764565b60405161032a919061100a565b60405180910390f35b34801561033f57600080fd5b50610348610788565b604051610355919061100a565b60405180910390f35b34801561036a57600080fd5b5061037361078f565b604051610380919061100a565b60405180910390f35b34801561039557600080fd5b506103b060048036038101906103ab9190611110565b6107b3565b005b3480156103be57600080fd5b506103c76107d4565b6040516103d4919061100a565b60405180910390f35b3480156103e957600080fd5b506103f26107f8565b6040516103ff919061100a565b60405180910390f35b610422600480360381019061041d919061117a565b61044f565b005b34801561043057600080fd5b5061043961081c565b6040516104469190611206565b60405180910390f35b7f067a7283e9fa435a2cc6bf2bc9d402b66be84693c88be7e59ff28ee68238b50561047981610842565b60003490506104888382610856565b6000610493826108a0565b90506104aa826004546108be90919063ffffffff16565b6004819055506104ba84826108d4565b8373ffffffffffffffffffffffffffffffffffffffff163373ffffffffffffffffffffffffffffffffffffffff167f623b3804fa71d67900d064613da8f94b9617215ee90799290593e1745087ad188484604051610519929190611221565b60405180910390a361052b84836108e2565b6105336108e6565b61053d8483610951565b50505050565b60007f7965db0b000000000000000000000000000000000000000000000000000000007bffffffffffffffffffffffffffffffffffffffffffffffffffffffff1916827bffffffffffffffffffffffffffffffffffffffffffffffffffffffff191614806105b657506105b582610955565b5b9050919050565b7f0a6437be3d409e943b51a5a15faa0c00efa44eb7c8b707f3502502a406f3c7f881565b6000806000838152602001908152602001600020600101549050919050565b60035481565b61060f826105e1565b61061881610842565b61062283836109bf565b505050565b61062f610a9f565b73ffffffffffffffffffffffffffffffffffffffff168173ffffffffffffffffffffffffffffffffffffffff161461069c576040517f08c379a0000000000000000000000000000000000000000000000000000000008152600401610693906112cd565b60405180910390fd5b6106a68282610aa7565b5050565b60045481565b600260009054906101000a900473ffffffffffffffffffffffffffffffffffffffff1681565b7f067a7283e9fa435a2cc6bf2bc9d402b66be84693c88be7e59ff28ee68238b50581565b600080600084815260200190815260200160002060000160008373ffffffffffffffffffffffffffffffffffffffff1673ffffffffffffffffffffffffffffffffffffffff16815260200190815260200160002060009054906101000a900460ff16905092915050565b7fa51b6b45fbf50a47b1a527fdd6887d77c11bd552d6841fb0dad35c15e3adbd1181565b6000801b81565b7f67ece15bd133b11598a907fb44de3d08dcf88cadd66731837f0274813fae477481565b6107bc826105e1565b6107c581610842565b6107cf8383610aa7565b505050565b7f8c033fe0d299513a093a57259d2aadd8834281ceab2965b2eba7e0666f08c6bb81565b7f85fc32380ab4247f891d38c2dfc69761709c5069b06e5700b787d65c3428817f81565b600160009054906101000a900473ffffffffffffffffffffffffffffffffffffffff1681565b6108538161084e610a9f565b610b88565b50565b600073ffffffffffffffffffffffffffffffffffffffff168273ffffffffffffffffffffffffffffffffffffffff160361088f57600080fd5b6000810361089c57600080fd5b5050565b60006108b760035483610c0d90919063ffffffff16565b9050919050565b600081836108cc919061131c565b905092915050565b6108de8282610c23565b5050565b5050565b600260009054906101000a900473ffffffffffffffffffffffffffffffffffffffff1673ffffffffffffffffffffffffffffffffffffffff166108fc349081150290604051600060405180830381858888f1935050505015801561094e573d6000803e3d6000fd5b50565b5050565b60007f01ffc9a7000000000000000000000000000000000000000000000000000000007bffffffffffffffffffffffffffffffffffffffffffffffffffffffff1916827bffffffffffffffffffffffffffffffffffffffffffffffffffffffff1916149050919050565b6109c982826106fa565b610a9b57600160008084815260200190815260200160002060000160008373ffffffffffffffffffffffffffffffffffffffff1673ffffffffffffffffffffffffffffffffffffffff16815260200190815260200160002060006101000a81548160ff021916908315150217905550610a40610a9f565b73ffffffffffffffffffffffffffffffffffffffff168173ffffffffffffffffffffffffffffffffffffffff16837f2f8788117e7eff1d82e926ec794901d17c78024a50270940304540a733656f0d60405160405180910390a45b5050565b600033905090565b610ab182826106fa565b15610b8457600080600084815260200190815260200160002060000160008373ffffffffffffffffffffffffffffffffffffffff1673ffffffffffffffffffffffffffffffffffffffff16815260200190815260200160002060006101000a81548160ff021916908315150217905550610b29610a9f565b73ffffffffffffffffffffffffffffffffffffffff168173ffffffffffffffffffffffffffffffffffffffff16837ff6391f5c32d9c69d2a47ea670b442974b53935d1edc7fd64eb21e047a839171b60405160405180910390a45b5050565b610b9282826106fa565b610c0957610b9f81610cc8565b610bad8360001c6020610cf5565b604051602001610bbe929190611484565b6040516020818303038152906040526040517f08c379a0000000000000000000000000000000000000000000000000000000008152600401610c009190611508565b60405180910390fd5b5050565b60008183610c1b919061152a565b905092915050565b600160009054906101000a900473ffffffffffffffffffffffffffffffffffffffff1673ffffffffffffffffffffffffffffffffffffffff1663a9059cbb83836040518363ffffffff1660e01b8152600401610c80929190611584565b6020604051808303816000875af1158015610c9f573d6000803e3d6000fd5b505050506040513d601f19601f82011682018060405250810190610cc391906115d9565b505050565b6060610cee8273ffffffffffffffffffffffffffffffffffffffff16601460ff16610cf5565b9050919050565b606060006002836002610d08919061152a565b610d12919061131c565b67ffffffffffffffff811115610d2b57610d2a611606565b5b6040519080825280601f01601f191660200182016040528015610d5d5781602001600182028036833780820191505090505b5090507f300000000000000000000000000000000000000000000000000000000000000081600081518110610d9557610d94611635565b5b60200101907effffffffffffffffffffffffffffffffffffffffffffffffffffffffffffff1916908160001a9053507f780000000000000000000000000000000000000000000000000000000000000081600181518110610df957610df8611635565b5b60200101907effffffffffffffffffffffffffffffffffffffffffffffffffffffffffffff1916908160001a90535060006001846002610e39919061152a565b610e43919061131c565b90505b6001811115610ee3577f3031323334353637383961626364656600000000000000000000000000000000600f861660108110610e8557610e84611635565b5b1a60f81b828281518110610e9c57610e9b611635565b5b60200101907effffffffffffffffffffffffffffffffffffffffffffffffffffffffffffff1916908160001a905350600485901c945080610edc90611664565b9050610e46565b5060008414610f27576040517f08c379a0000000000000000000000000000000000000000000000000000000008152600401610f1e906116d9565b60405180910390fd5b8091505092915050565b600080fd5b60007fffffffff0000000000000000000000000000000000000000000000000000000082169050919050565b610f6b81610f36565b8114610f7657600080fd5b50565b600081359050610f8881610f62565b92915050565b600060208284031215610fa457610fa3610f31565b5b6000610fb284828501610f79565b91505092915050565b60008115159050919050565b610fd081610fbb565b82525050565b6000602082019050610feb6000830184610fc7565b92915050565b6000819050919050565b61100481610ff1565b82525050565b600060208201905061101f6000830184610ffb565b92915050565b61102e81610ff1565b811461103957600080fd5b50565b60008135905061104b81611025565b92915050565b60006020828403121561106757611066610f31565b5b60006110758482850161103c565b91505092915050565b6000819050919050565b6110918161107e565b82525050565b60006020820190506110ac6000830184611088565b92915050565b600073ffffffffffffffffffffffffffffffffffffffff82169050919050565b60006110dd826110b2565b9050919050565b6110ed816110d2565b81146110f857600080fd5b50565b60008135905061110a816110e4565b92915050565b6000806040838503121561112757611126610f31565b5b60006111358582860161103c565b9250506020611146858286016110fb565b9150509250929050565b611159816110d2565b82525050565b60006020820190506111746000830184611150565b92915050565b6000602082840312156111905761118f610f31565b5b600061119e848285016110fb565b91505092915050565b6000819050919050565b60006111cc6111c76111c2846110b2565b6111a7565b6110b2565b9050919050565b60006111de826111b1565b9050919050565b60006111f0826111d3565b9050919050565b611200816111e5565b82525050565b600060208201905061121b60008301846111f7565b92915050565b60006040820190506112366000830185611088565b6112436020830184611088565b9392505050565b600082825260208201905092915050565b7f416363657373436f6e74726f6c3a2063616e206f6e6c792072656e6f756e636560008201527f20726f6c657320666f722073656c660000000000000000000000000000000000602082015250565b60006112b7602f8361124a565b91506112c28261125b565b604082019050919050565b600060208201905081810360008301526112e6816112aa565b9050919050565b7f4e487b7100000000000000000000000000000000000000000000000000000000600052601160045260246000fd5b60006113278261107e565b91506113328361107e565b9250827fffffffffffffffffffffffffffffffffffffffffffffffffffffffffffffffff03821115611367576113666112ed565b5b828201905092915050565b600081905092915050565b7f416363657373436f6e74726f6c3a206163636f756e7420000000000000000000600082015250565b60006113b3601783611372565b91506113be8261137d565b601782019050919050565b600081519050919050565b60005b838110156113f25780820151818401526020810190506113d7565b83811115611401576000848401525b50505050565b6000611412826113c9565b61141c8185611372565b935061142c8185602086016113d4565b80840191505092915050565b7f206973206d697373696e6720726f6c6520000000000000000000000000000000600082015250565b600061146e601183611372565b915061147982611438565b601182019050919050565b600061148f826113a6565b915061149b8285611407565b91506114a682611461565b91506114b28284611407565b91508190509392505050565b6000601f19601f8301169050919050565b60006114da826113c9565b6114e4818561124a565b93506114f48185602086016113d4565b6114fd816114be565b840191505092915050565b6000602082019050818103600083015261152281846114cf565b905092915050565b60006115358261107e565b91506115408361107e565b9250817fffffffffffffffffffffffffffffffffffffffffffffffffffffffffffffffff0483118215151615611579576115786112ed565b5b828202905092915050565b60006040820190506115996000830185611150565b6115a66020830184611088565b9392505050565b6115b681610fbb565b81146115c157600080fd5b50565b6000815190506115d3816115ad565b92915050565b6000602082840312156115ef576115ee610f31565b5b60006115fd848285016115c4565b91505092915050565b7f4e487b7100000000000000000000000000000000000000000000000000000000600052604160045260246000fd5b7f4e487b7100000000000000000000000000000000000000000000000000000000600052603260045260246000fd5b600061166f8261107e565b915060008203611682576116816112ed565b5b600182039050919050565b7f537472696e67733a20686578206c656e67746820696e73756666696369656e74600082015250565b60006116c360208361124a565b91506116ce8261168d565b602082019050919050565b600060208201905081810360008301526116f2816116b6565b905091905056fea2646970667358221220581322a1bbffb2235438f64ae32f602dd96e4c533d7601558da6e2e5c153db4664736f6c634300080e0033",
  "immutableReferences": {},
  "source": "// SPDX-License-Identifier: GPL-3.0\npragma solidity ^0.8.0;\n\n// import \"../token/ERC20/ERC20.sol\";\nimport \"@openzeppelin/contracts/token/ERC20/ERC20.sol\";\nimport \"@openzeppelin/contracts/utils/math/SafeMath.sol\";\nimport \"@openzeppelin/contracts/access/AccessControl.sol\";\n\n\n// Steps:\n// Create ERC20 token\n// Inititalise crowdsale with rate, beneficiary wallet and ERC20 token address\n// Transfer tokens to this contract and check the new balances\n\n/**\n * @title Crowdsale\n * @dev Crowdsale is a base contract for managing a token crowdsale,\n * allowing investors to purchase tokens with ether. This contract implements\n * such functionality in its most fundamental form and can be extended to provide additional\n * functionality and/or custom behavior.\n * The external interface represents the basic interface for purchasing tokens, and conform\n * the base architecture for crowdsales. They are *not* intended to be modified / overriden.\n * The internal interface conforms the extensible and modifiable surface of crowdsales. Override\n * the methods to add functionality. Consider using 'super' where appropiate to concatenate\n * behavior.\n */\ncontract Crowdsale_V0 is AccessControl{\n    using SafeMath for uint256;\n\n    // The token being sold\n    ERC20 public token;\n\n    // Address where funds are collected\n    address public wallet;\n\n    // How many token units a buyer gets per wei\n    uint256 public rate;\n\n    // Amount of wei raised\n    uint256 public weiRaised;\n\n    /**\n     * Event for token purchase logging\n     * @param purchaser who paid for the tokens\n     * @param beneficiary who got the tokens\n     * @param value weis paid for purchase\n     * @param amount amount of tokens purchased\n     */\n    event TokenPurchase(\n        address indexed purchaser,\n        address indexed beneficiary,\n        uint256 value,\n        uint256 amount\n    );\n\n    /**\n     * @param _rate Number of token units a buyer gets per wei\n     * @param _wallet Address where collected funds will be forwarded to\n     * @param _token Address of the token being sold\n     */\n    constructor(\n        uint256 _rate,\n        address _wallet,\n        ERC20 _token\n    ) {\n        require(_rate > 0);\n        require(_wallet != address(0));\n        require(address(_token) != address(0));\n\n        rate = _rate;\n        wallet = _wallet;\n        token = _token;\n        ERC20(_token).transfer(address(this),1000000000000000000000);\n    }\n\n    // -----------------------------------------\n    // Crowdsale external interface\n    // -----------------------------------------\n\n    /**\n     * @dev fallback function ***DO NOT OVERRIDE***\n     */\n    fallback() external payable {\n        buyTokens(msg.sender);\n    }\n\n    receive() external payable {\n        buyTokens(msg.sender);\n    }\n\n    /**\n     * @dev low level token purchase ***DO NOT OVERRIDE***\n     * @param _beneficiary Address performing the token purchase\n     */\n    function buyTokens(address _beneficiary) public payable onlyRole(INDUSTRY_ROLE){\n        uint256 weiAmount = msg.value;\n        _preValidatePurchase(_beneficiary, weiAmount);\n\n        // calculate token amount to be created\n        uint256 tokens = _getTokenAmount(weiAmount);\n\n        // update state\n        weiRaised = weiRaised.add(weiAmount);\n\n        _processPurchase(_beneficiary, tokens);\n        emit TokenPurchase(msg.sender, _beneficiary, weiAmount, tokens);\n\n        _updatePurchasingState(_beneficiary, weiAmount);\n\n        _forwardFunds();\n        _postValidatePurchase(_beneficiary, weiAmount);\n    }\n\n    // -----------------------------------------\n    // Internal interface (extensible)\n    // -----------------------------------------\n\n    /**\n     * @dev Validation of an incoming purchase. Use require statements to revert state when conditions are not met. Use super to concatenate validations.\n     * @param _beneficiary Address performing the token purchase\n     * @param _weiAmount Value in wei involved in the purchase\n     */\n    function _preValidatePurchase(address _beneficiary, uint256 _weiAmount)\n        internal\n        pure\n    {\n        require(_beneficiary != address(0));\n        require(_weiAmount != 0);\n    }\n\n    /**\n     * @dev Validation of an executed purchase. Observe state and use revert statements to undo rollback when valid conditions are not met.\n     * @param _beneficiary Address performing the token purchase\n     * @param _weiAmount Value in wei involved in the purchase\n     */\n    function _postValidatePurchase(address _beneficiary, uint256 _weiAmount)\n        internal\n    {\n        // optional override\n    }\n\n    /**\n     * @dev Source of tokens. Override this method to modify the way in which the crowdsale ultimately gets and sends its tokens.\n     * @param _beneficiary Address performing the token purchase\n     * @param _tokenAmount Number of tokens to be emitted\n     */\n    function _deliverTokens(address _beneficiary, uint256 _tokenAmount)\n        internal\n        virtual\n    {\n        token.transfer(_beneficiary, _tokenAmount);\n    }\n\n    /**\n     * @dev Executed when a purchase has been validated and is ready to be executed. Not necessarily emits/sends tokens.\n     * @param _beneficiary Address receiving the tokens\n     * @param _tokenAmount Number of tokens to be purchased\n     */\n    function _processPurchase(address _beneficiary, uint256 _tokenAmount)\n        internal\n    {\n        _deliverTokens(_beneficiary, _tokenAmount);\n    }\n\n    /**\n     * @dev Override for extensions that require an internal state to check for validity (current user contributions, etc.)\n     * @param _beneficiary Address receiving the tokens\n     * @param _weiAmount Value in wei involved in the purchase\n     */\n    function _updatePurchasingState(address _beneficiary, uint256 _weiAmount)\n        internal\n    {\n        // optional override\n    }\n\n    /**\n     * @dev Override to extend the way in which ether is converted to tokens.\n     * @param _weiAmount Value in wei to be converted into tokens\n     * @return Number of tokens that can be purchased with the specified _weiAmount\n     */\n    function _getTokenAmount(uint256 _weiAmount)\n        internal\n        view\n        returns (uint256)\n    {\n        return _weiAmount.mul(rate);\n    }\n\n    /**\n     * @dev Determines how ETH is stored/forwarded on purchases.\n     */\n    function _forwardFunds() internal {\n        payable(wallet).transfer(msg.value);\n    }\n}\n",
  "sourcePath": "/Users/yaksheshgupta/Desktop/TRINIT_teamLite_WEB01/BACKEND/contracts/Crowdsale.sol",
  "compiler": {
    "name": "solc",
    "version": "0.8.14+commit.80d49f37.Emscripten.clang"
  },
  "schemaVersion": "3.4.7",
  "updatedAt": "2023-02-11T16:52:20.008Z",
  "devdoc": {
    "details": "Crowdsale is a base contract for managing a token crowdsale, allowing investors to purchase tokens with ether. This contract implements such functionality in its most fundamental form and can be extended to provide additional functionality and/or custom behavior. The external interface represents the basic interface for purchasing tokens, and conform the base architecture for crowdsales. They are *not* intended to be modified / overriden. The internal interface conforms the extensible and modifiable surface of crowdsales. Override the methods to add functionality. Consider using 'super' where appropiate to concatenate behavior.",
    "events": {
      "TokenPurchase(address,address,uint256,uint256)": {
        "params": {
          "amount": "amount of tokens purchased",
          "beneficiary": "who got the tokens",
          "purchaser": "who paid for the tokens",
          "value": "weis paid for purchase"
        }
      }
    },
    "kind": "dev",
    "methods": {
      "buyTokens(address)": {
        "details": "low level token purchase ***DO NOT OVERRIDE***",
        "params": {
          "_beneficiary": "Address performing the token purchase"
        }
      },
      "constructor": {
        "params": {
          "_rate": "Number of token units a buyer gets per wei",
          "_token": "Address of the token being sold",
          "_wallet": "Address where collected funds will be forwarded to"
        }
      },
      "getRoleAdmin(bytes32)": {
        "details": "Returns the admin role that controls `role`. See {grantRole} and {revokeRole}. To change a role's admin, use {_setRoleAdmin}."
      },
      "grantRole(bytes32,address)": {
        "details": "Grants `role` to `account`. If `account` had not been already granted `role`, emits a {RoleGranted} event. Requirements: - the caller must have ``role``'s admin role. May emit a {RoleGranted} event."
      },
      "hasRole(bytes32,address)": {
        "details": "Returns `true` if `account` has been granted `role`."
      },
      "renounceRole(bytes32,address)": {
        "details": "Revokes `role` from the calling account. Roles are often managed via {grantRole} and {revokeRole}: this function's purpose is to provide a mechanism for accounts to lose their privileges if they are compromised (such as when a trusted device is misplaced). If the calling account had been revoked `role`, emits a {RoleRevoked} event. Requirements: - the caller must be `account`. May emit a {RoleRevoked} event."
      },
      "revokeRole(bytes32,address)": {
        "details": "Revokes `role` from `account`. If `account` had been granted `role`, emits a {RoleRevoked} event. Requirements: - the caller must have ``role``'s admin role. May emit a {RoleRevoked} event."
      },
      "supportsInterface(bytes4)": {
        "details": "See {IERC165-supportsInterface}."
      }
    },
    "title": "Crowdsale",
    "version": 1
  },
  "userdoc": {
    "events": {
      "TokenPurchase(address,address,uint256,uint256)": {
        "notice": "Event for token purchase logging"
      }
    },
    "kind": "user",
    "methods": {},
    "version": 1
  }
}