{
  "contractName": "Gov_side",
  "abi": [
    {
      "inputs": [
        {
          "internalType": "contract CoTax",
          "name": "_CoTax_tkn",
          "type": "address"
        }
      ],
      "stateMutability": "nonpayable",
      "type": "constructor"
    },
    {
      "anonymous": false,
      "inputs": [
        {
          "indexed": true,
          "internalType": "bytes32",
          "name": "role",
          "type": "bytes32"
        },
        {
          "indexed": true,
          "internalType": "bytes32",
          "name": "previousAdminRole",
          "type": "bytes32"
        },
        {
          "indexed": true,
          "internalType": "bytes32",
          "name": "newAdminRole",
          "type": "bytes32"
        }
      ],
      "name": "RoleAdminChanged",
      "type": "event"
    },
    {
      "anonymous": false,
      "inputs": [
        {
          "indexed": true,
          "internalType": "bytes32",
          "name": "role",
          "type": "bytes32"
        },
        {
          "indexed": true,
          "internalType": "address",
          "name": "account",
          "type": "address"
        },
        {
          "indexed": true,
          "internalType": "address",
          "name": "sender",
          "type": "address"
        }
      ],
      "name": "RoleGranted",
      "type": "event"
    },
    {
      "anonymous": false,
      "inputs": [
        {
          "indexed": true,
          "internalType": "bytes32",
          "name": "role",
          "type": "bytes32"
        },
        {
          "indexed": true,
          "internalType": "address",
          "name": "account",
          "type": "address"
        },
        {
          "indexed": true,
          "internalType": "address",
          "name": "sender",
          "type": "address"
        }
      ],
      "name": "RoleRevoked",
      "type": "event"
    },
    {
      "inputs": [],
      "name": "AGRICULTURE_ROLE",
      "outputs": [
        {
          "internalType": "bytes32",
          "name": "",
          "type": "bytes32"
        }
      ],
      "stateMutability": "view",
      "type": "function",
      "constant": true
    },
    {
      "inputs": [],
      "name": "DEFAULT_ADMIN_ROLE",
      "outputs": [
        {
          "internalType": "bytes32",
          "name": "",
          "type": "bytes32"
        }
      ],
      "stateMutability": "view",
      "type": "function",
      "constant": true
    },
    {
      "inputs": [],
      "name": "FOOD_ROLE",
      "outputs": [
        {
          "internalType": "bytes32",
          "name": "",
          "type": "bytes32"
        }
      ],
      "stateMutability": "view",
      "type": "function",
      "constant": true
    },
    {
      "inputs": [],
      "name": "HEAD_ROLE",
      "outputs": [
        {
          "internalType": "bytes32",
          "name": "",
          "type": "bytes32"
        }
      ],
      "stateMutability": "view",
      "type": "function",
      "constant": true
    },
    {
      "inputs": [],
      "name": "INDUSTRY_ROLE",
      "outputs": [
        {
          "internalType": "bytes32",
          "name": "",
          "type": "bytes32"
        }
      ],
      "stateMutability": "view",
      "type": "function",
      "constant": true
    },
    {
      "inputs": [],
      "name": "MANUFACTURING_ROLE",
      "outputs": [
        {
          "internalType": "bytes32",
          "name": "",
          "type": "bytes32"
        }
      ],
      "stateMutability": "view",
      "type": "function",
      "constant": true
    },
    {
      "inputs": [],
      "name": "MIN_CORTEX_AMT",
      "outputs": [
        {
          "internalType": "uint256",
          "name": "",
          "type": "uint256"
        }
      ],
      "stateMutability": "view",
      "type": "function",
      "constant": true
    },
    {
      "inputs": [],
      "name": "PAY_ROLE",
      "outputs": [
        {
          "internalType": "bytes32",
          "name": "",
          "type": "bytes32"
        }
      ],
      "stateMutability": "view",
      "type": "function",
      "constant": true
    },
    {
      "inputs": [],
      "name": "TECHNOLOGY_ROLE",
      "outputs": [
        {
          "internalType": "bytes32",
          "name": "",
          "type": "bytes32"
        }
      ],
      "stateMutability": "view",
      "type": "function",
      "constant": true
    },
    {
      "inputs": [
        {
          "internalType": "bytes32",
          "name": "",
          "type": "bytes32"
        }
      ],
      "name": "carbon_caps",
      "outputs": [
        {
          "internalType": "uint256",
          "name": "MIN_EMITION",
          "type": "uint256"
        },
        {
          "internalType": "uint256",
          "name": "MAX_EMITION",
          "type": "uint256"
        }
      ],
      "stateMutability": "view",
      "type": "function",
      "constant": true
    },
    {
      "inputs": [
        {
          "internalType": "bytes32",
          "name": "role",
          "type": "bytes32"
        }
      ],
      "name": "getRoleAdmin",
      "outputs": [
        {
          "internalType": "bytes32",
          "name": "",
          "type": "bytes32"
        }
      ],
      "stateMutability": "view",
      "type": "function",
      "constant": true
    },
    {
      "inputs": [
        {
          "internalType": "bytes32",
          "name": "role",
          "type": "bytes32"
        },
        {
          "internalType": "address",
          "name": "account",
          "type": "address"
        }
      ],
      "name": "grantRole",
      "outputs": [],
      "stateMutability": "nonpayable",
      "type": "function"
    },
    {
      "inputs": [
        {
          "internalType": "bytes32",
          "name": "role",
          "type": "bytes32"
        },
        {
          "internalType": "address",
          "name": "account",
          "type": "address"
        }
      ],
      "name": "hasRole",
      "outputs": [
        {
          "internalType": "bool",
          "name": "",
          "type": "bool"
        }
      ],
      "stateMutability": "view",
      "type": "function",
      "constant": true
    },
    {
      "inputs": [],
      "name": "owner",
      "outputs": [
        {
          "internalType": "address",
          "name": "",
          "type": "address"
        }
      ],
      "stateMutability": "view",
      "type": "function",
      "constant": true
    },
    {
      "inputs": [
        {
          "internalType": "address",
          "name": "",
          "type": "address"
        },
        {
          "internalType": "uint256",
          "name": "",
          "type": "uint256"
        }
      ],
      "name": "past_record_emition",
      "outputs": [
        {
          "internalType": "uint256",
          "name": "",
          "type": "uint256"
        }
      ],
      "stateMutability": "view",
      "type": "function",
      "constant": true
    },
    {
      "inputs": [
        {
          "internalType": "bytes32",
          "name": "role",
          "type": "bytes32"
        },
        {
          "internalType": "address",
          "name": "account",
          "type": "address"
        }
      ],
      "name": "renounceRole",
      "outputs": [],
      "stateMutability": "nonpayable",
      "type": "function"
    },
    {
      "inputs": [
        {
          "internalType": "bytes32",
          "name": "role",
          "type": "bytes32"
        },
        {
          "internalType": "address",
          "name": "account",
          "type": "address"
        }
      ],
      "name": "revokeRole",
      "outputs": [],
      "stateMutability": "nonpayable",
      "type": "function"
    },
    {
      "inputs": [
        {
          "internalType": "bytes4",
          "name": "interfaceId",
          "type": "bytes4"
        }
      ],
      "name": "supportsInterface",
      "outputs": [
        {
          "internalType": "bool",
          "name": "",
          "type": "bool"
        }
      ],
      "stateMutability": "view",
      "type": "function",
      "constant": true
    },
    {
      "inputs": [
        {
          "internalType": "bytes32",
          "name": "catagory",
          "type": "bytes32"
        },
        {
          "internalType": "uint256",
          "name": "_MAX_EMITION",
          "type": "uint256"
        },
        {
          "internalType": "uint256",
          "name": "_MIN_EMITION",
          "type": "uint256"
        }
      ],
      "name": "set_caps",
      "outputs": [],
      "stateMutability": "nonpayable",
      "type": "function"
    },
    {
      "inputs": [
        {
          "internalType": "address",
          "name": "_comp_add",
          "type": "address"
        }
      ],
      "name": "whitelist_comp",
      "outputs": [],
      "stateMutability": "nonpayable",
      "type": "function"
    },
    {
      "inputs": [
        {
          "internalType": "uint256",
          "name": "amt",
          "type": "uint256"
        }
      ],
      "name": "change_minCortex",
      "outputs": [],
      "stateMutability": "nonpayable",
      "type": "function"
    },
    {
      "inputs": [
        {
          "internalType": "address",
          "name": "_to",
          "type": "address"
        }
      ],
      "name": "return_Cortex_amt",
      "outputs": [
        {
          "internalType": "uint256",
          "name": "",
          "type": "uint256"
        }
      ],
      "stateMutability": "view",
      "type": "function",
      "constant": true
    },
    {
      "inputs": [
        {
          "internalType": "address",
          "name": "_to",
          "type": "address"
        },
        {
          "internalType": "uint256",
          "name": "amount",
          "type": "uint256"
        }
      ],
      "name": "transfer_cortex",
      "outputs": [
        {
          "internalType": "bool",
          "name": "",
          "type": "bool"
        }
      ],
      "stateMutability": "nonpayable",
      "type": "function"
    },
    {
      "inputs": [
        {
          "internalType": "address",
          "name": "comp_add",
          "type": "address"
        },
        {
          "internalType": "uint256",
          "name": "gas_emition",
          "type": "uint256"
        }
      ],
      "name": "tax_calculate",
      "outputs": [
        {
          "internalType": "bool",
          "name": "",
          "type": "bool"
        }
      ],
      "stateMutability": "nonpayable",
      "type": "function"
    },
    {
      "inputs": [],
      "name": "transfer_to_CS",
      "outputs": [],
      "stateMutability": "nonpayable",
      "type": "function"
    }
  ],
  "bytecode": "0x608060405260405180608001604052807f8c033fe0d299513a093a57259d2aadd8834281ceab2965b2eba7e0666f08c6bb81526020017f0a6437be3d409e943b51a5a15faa0c00efa44eb7c8b707f3502502a406f3c7f881526020017f85fc32380ab4247f891d38c2dfc69761709c5069b06e5700b787d65c3428817f81526020017f67ece15bd133b11598a907fb44de3d08dcf88cadd66731837f0274813fae47748152506001906004620000b79291906200035c565b50674563918244f40000600255348015620000d157600080fd5b506040516200228d3803806200228d8339818101604052810190620000f791906200044b565b33600360006101000a81548173ffffffffffffffffffffffffffffffffffffffff021916908373ffffffffffffffffffffffffffffffffffffffff16021790555080600460006101000a81548173ffffffffffffffffffffffffffffffffffffffff021916908373ffffffffffffffffffffffffffffffffffffffff1602179055506200018e6000801b33620001f960201b60201c565b620001c07fa51b6b45fbf50a47b1a527fdd6887d77c11bd552d6841fb0dad35c15e3adbd1133620001f960201b60201c565b620001f27fd7aa2ddfa4e381128202bf365b7e0a176f2fca6cdf2f23c2b0a6f4393769589030620001f960201b60201c565b506200047d565b6200020b8282620002ea60201b60201c565b620002e657600160008084815260200190815260200160002060000160008373ffffffffffffffffffffffffffffffffffffffff1673ffffffffffffffffffffffffffffffffffffffff16815260200190815260200160002060006101000a81548160ff0219169083151502179055506200028b6200035460201b60201c565b73ffffffffffffffffffffffffffffffffffffffff168173ffffffffffffffffffffffffffffffffffffffff16837f2f8788117e7eff1d82e926ec794901d17c78024a50270940304540a733656f0d60405160405180910390a45b5050565b600080600084815260200190815260200160002060000160008373ffffffffffffffffffffffffffffffffffffffff1673ffffffffffffffffffffffffffffffffffffffff16815260200190815260200160002060009054906101000a900460ff16905092915050565b600033905090565b8280548282559060005260206000209081019282156200039b579160200282015b828111156200039a5782518255916020019190600101906200037d565b5b509050620003aa9190620003ae565b5090565b5b80821115620003c9576000816000905550600101620003af565b5090565b600080fd5b600073ffffffffffffffffffffffffffffffffffffffff82169050919050565b6000620003ff82620003d2565b9050919050565b60006200041382620003f2565b9050919050565b620004258162000406565b81146200043157600080fd5b50565b60008151905062000445816200041a565b92915050565b600060208284031215620004645762000463620003cd565b5b6000620004748482850162000434565b91505092915050565b611e00806200048d6000396000f3fe608060405234801561001057600080fd5b50600436106101735760003560e01c80636a1203a4116100de578063a217fddf11610097578063d547741f11610071578063d547741f14610463578063d95b0bd91461047f578063dfedacb31461049b578063e97283ca146104b957610173565b8063a217fddf14610409578063b5da73a814610427578063c1e608121461044557610173565b80636a1203a4146103335780636d3491ec1461034f5780638da5cb5b1461036d57806391d148541461038b57806396167d1b146103bb57806398c28a39146103d957610173565b80632f2ff15d116101305780632f2ff15d1461027257806336568abe1461028e5780633bf2a9f4146102aa578063506f3dd5146102c85780636084f24c146102f857806368828a271461030257610173565b806301ffc9a714610178578063020f56e0146101a85780632069b325146101c45780632241862b146101f4578063248a9ca3146102125780632600d04c14610242575b600080fd5b610192600480360381019061018d9190611477565b6104d7565b60405161019f91906114bf565b60405180910390f35b6101c260048036038101906101bd9190611510565b610551565b005b6101de60048036038101906101d9919061159b565b610586565b6040516101eb91906114bf565b60405180910390f35b6101fc6105ef565b60405161020991906115f4565b60405180910390f35b61022c6004803603810190610227919061163b565b610613565b60405161023991906115f4565b60405180910390f35b61025c6004803603810190610257919061159b565b610632565b6040516102699190611677565b60405180910390f35b61028c60048036038101906102879190611692565b610657565b005b6102a860048036038101906102a39190611692565b610678565b005b6102b26106fb565b6040516102bf91906115f4565b60405180910390f35b6102e260048036038101906102dd91906116d2565b61071f565b6040516102ef9190611677565b60405180910390f35b6103006107c9565b005b61031c6004803603810190610317919061163b565b6108c2565b60405161032a9291906116ff565b60405180910390f35b61034d60048036038101906103489190611728565b6108e6565b005b610357610940565b60405161036491906115f4565b60405180910390f35b610375610964565b604051610382919061178a565b60405180910390f35b6103a560048036038101906103a09190611692565b61098a565b6040516103b291906114bf565b60405180910390f35b6103c36109f4565b6040516103d091906115f4565b60405180910390f35b6103f360048036038101906103ee919061159b565b610a18565b60405161040091906114bf565b60405180910390f35b610411610aed565b60405161041e91906115f4565b60405180910390f35b61042f610af4565b60405161043c9190611677565b60405180910390f35b61044d610afa565b60405161045a91906115f4565b60405180910390f35b61047d60048036038101906104789190611692565b610b1e565b005b610499600480360381019061049491906116d2565b610b3f565b005b6104a3610c56565b6040516104b091906115f4565b60405180910390f35b6104c1610c7a565b6040516104ce91906115f4565b60405180910390f35b60007f7965db0b000000000000000000000000000000000000000000000000000000007bffffffffffffffffffffffffffffffffffffffffffffffffffffffff1916827bffffffffffffffffffffffffffffffffffffffffffffffffffffffff1916148061054a575061054982610c9e565b5b9050919050565b7fa51b6b45fbf50a47b1a527fdd6887d77c11bd552d6841fb0dad35c15e3adbd1161057b81610d08565b816002819055505050565b600081600760008573ffffffffffffffffffffffffffffffffffffffff1673ffffffffffffffffffffffffffffffffffffffff1681526020019081526020016000206000428152602001908152602001600020819055506105e78383610d1c565b905092915050565b7f0a6437be3d409e943b51a5a15faa0c00efa44eb7c8b707f3502502a406f3c7f881565b6000806000838152602001908152602001600020600101549050919050565b6007602052816000526040600020602052806000526040600020600091509150505481565b61066082610613565b61066981610d08565b6106738383610ea5565b505050565b610680610f85565b73ffffffffffffffffffffffffffffffffffffffff168173ffffffffffffffffffffffffffffffffffffffff16146106ed576040517f08c379a00000000000000000000000000000000000000000000000000000000081526004016106e490611828565b60405180910390fd5b6106f78282610f8d565b5050565b7fd7aa2ddfa4e381128202bf365b7e0a176f2fca6cdf2f23c2b0a6f4393769589081565b600080600460009054906101000a900473ffffffffffffffffffffffffffffffffffffffff1673ffffffffffffffffffffffffffffffffffffffff166370a08231846040518263ffffffff1660e01b815260040161077d919061178a565b602060405180830381865afa15801561079a573d6000803e3d6000fd5b505050506040513d601f19601f820116820180604052508101906107be919061185d565b905080915050919050565b7fa51b6b45fbf50a47b1a527fdd6887d77c11bd552d6841fb0dad35c15e3adbd116107f381610d08565b600460009054906101000a900473ffffffffffffffffffffffffffffffffffffffff1673ffffffffffffffffffffffffffffffffffffffff1663a9059cbb600460009054906101000a900473ffffffffffffffffffffffffffffffffffffffff16683635c9adc5dea000006040518363ffffffff1660e01b815260040161087b9291906118cf565b6020604051808303816000875af115801561089a573d6000803e3d6000fd5b505050506040513d601f19601f820116820180604052508101906108be9190611924565b5050565b60056020528060005260406000206000915090508060000154908060010154905082565b7fa51b6b45fbf50a47b1a527fdd6887d77c11bd552d6841fb0dad35c15e3adbd1161091081610d08565b60006005600086815260200190815260200160002090508281600001819055508381600101819055505050505050565b7f067a7283e9fa435a2cc6bf2bc9d402b66be84693c88be7e59ff28ee68238b50581565b600360009054906101000a900473ffffffffffffffffffffffffffffffffffffffff1681565b600080600084815260200190815260200160002060000160008373ffffffffffffffffffffffffffffffffffffffff1673ffffffffffffffffffffffffffffffffffffffff16815260200190815260200160002060009054906101000a900460ff16905092915050565b7fa51b6b45fbf50a47b1a527fdd6887d77c11bd552d6841fb0dad35c15e3adbd1181565b60007f067a7283e9fa435a2cc6bf2bc9d402b66be84693c88be7e59ff28ee68238b505610a4481610d08565b600460009054906101000a900473ffffffffffffffffffffffffffffffffffffffff1673ffffffffffffffffffffffffffffffffffffffff1663a9059cbb85856040518363ffffffff1660e01b8152600401610aa1929190611951565b6020604051808303816000875af1158015610ac0573d6000803e3d6000fd5b505050506040513d601f19601f82011682018060405250810190610ae49190611924565b91505092915050565b6000801b81565b60025481565b7f67ece15bd133b11598a907fb44de3d08dcf88cadd66731837f0274813fae477481565b610b2782610613565b610b3081610d08565b610b3a8383610f8d565b505050565b6000600460009054906101000a900473ffffffffffffffffffffffffffffffffffffffff1673ffffffffffffffffffffffffffffffffffffffff166370a08231836040518263ffffffff1660e01b8152600401610b9c919061178a565b602060405180830381865afa158015610bb9573d6000803e3d6000fd5b505050506040513d601f19601f82011682018060405250810190610bdd919061185d565b90506002548110610c1757610c127f067a7283e9fa435a2cc6bf2bc9d402b66be84693c88be7e59ff28ee68238b50583610ea5565b610c52565b6040517f08c379a0000000000000000000000000000000000000000000000000000000008152600401610c49906119ec565b60405180910390fd5b5050565b7f8c033fe0d299513a093a57259d2aadd8834281ceab2965b2eba7e0666f08c6bb81565b7f85fc32380ab4247f891d38c2dfc69761709c5069b06e5700b787d65c3428817f81565b60007f01ffc9a7000000000000000000000000000000000000000000000000000000007bffffffffffffffffffffffffffffffffffffffffffffffffffffffff1916827bffffffffffffffffffffffffffffffffffffffffffffffffffffffff1916149050919050565b610d1981610d14610f85565b61106e565b50565b600080600660008573ffffffffffffffffffffffffffffffffffffffff1673ffffffffffffffffffffffffffffffffffffffff168152602001908152602001600020549050610d6b818561098a565b610d7457600080fd5b60056000600660008773ffffffffffffffffffffffffffffffffffffffff1673ffffffffffffffffffffffffffffffffffffffff168152602001908152602001600020548152602001908152602001600020600001548311610e4a5760008360056000600660008973ffffffffffffffffffffffffffffffffffffffff1673ffffffffffffffffffffffffffffffffffffffff16815260200190815260200160002054815260200190815260200160002060000154610e339190611a3b565b9050610e3f85826110f3565b600192505050610e9f565b60056000600660008773ffffffffffffffffffffffffffffffffffffffff1673ffffffffffffffffffffffffffffffffffffffff16815260200190815260200160002054815260200190815260200160002050505b92915050565b610eaf828261098a565b610f8157600160008084815260200190815260200160002060000160008373ffffffffffffffffffffffffffffffffffffffff1673ffffffffffffffffffffffffffffffffffffffff16815260200190815260200160002060006101000a81548160ff021916908315150217905550610f26610f85565b73ffffffffffffffffffffffffffffffffffffffff168173ffffffffffffffffffffffffffffffffffffffff16837f2f8788117e7eff1d82e926ec794901d17c78024a50270940304540a733656f0d60405160405180910390a45b5050565b600033905090565b610f97828261098a565b1561106a57600080600084815260200190815260200160002060000160008373ffffffffffffffffffffffffffffffffffffffff1673ffffffffffffffffffffffffffffffffffffffff16815260200190815260200160002060006101000a81548160ff02191690831515021790555061100f610f85565b73ffffffffffffffffffffffffffffffffffffffff168173ffffffffffffffffffffffffffffffffffffffff16837ff6391f5c32d9c69d2a47ea670b442974b53935d1edc7fd64eb21e047a839171b60405160405180910390a45b5050565b611078828261098a565b6110ef57611085816111b1565b6110938360001c60206111de565b6040516020016110a4929190611b81565b6040516020818303038152906040526040517f08c379a00000000000000000000000000000000000000000000000000000000081526004016110e69190611c05565b60405180910390fd5b5050565b600067016345785d8a0000826111099190611c27565b9050600460009054906101000a900473ffffffffffffffffffffffffffffffffffffffff1673ffffffffffffffffffffffffffffffffffffffff1663a9059cbb84836040518363ffffffff1660e01b8152600401611168929190611951565b6020604051808303816000875af1158015611187573d6000803e3d6000fd5b505050506040513d601f19601f820116820180604052508101906111ab9190611924565b50505050565b60606111d78273ffffffffffffffffffffffffffffffffffffffff16601460ff166111de565b9050919050565b6060600060028360026111f19190611c27565b6111fb9190611c81565b67ffffffffffffffff81111561121457611213611cd7565b5b6040519080825280601f01601f1916602001820160405280156112465781602001600182028036833780820191505090505b5090507f30000000000000000000000000000000000000000000000000000000000000008160008151811061127e5761127d611d06565b5b60200101907effffffffffffffffffffffffffffffffffffffffffffffffffffffffffffff1916908160001a9053507f7800000000000000000000000000000000000000000000000000000000000000816001815181106112e2576112e1611d06565b5b60200101907effffffffffffffffffffffffffffffffffffffffffffffffffffffffffffff1916908160001a905350600060018460026113229190611c27565b61132c9190611c81565b90505b60018111156113cc577f3031323334353637383961626364656600000000000000000000000000000000600f86166010811061136e5761136d611d06565b5b1a60f81b82828151811061138557611384611d06565b5b60200101907effffffffffffffffffffffffffffffffffffffffffffffffffffffffffffff1916908160001a905350600485901c9450806113c590611d35565b905061132f565b5060008414611410576040517f08c379a000000000000000000000000000000000000000000000000000000000815260040161140790611daa565b60405180910390fd5b8091505092915050565b600080fd5b60007fffffffff0000000000000000000000000000000000000000000000000000000082169050919050565b6114548161141f565b811461145f57600080fd5b50565b6000813590506114718161144b565b92915050565b60006020828403121561148d5761148c61141a565b5b600061149b84828501611462565b91505092915050565b60008115159050919050565b6114b9816114a4565b82525050565b60006020820190506114d460008301846114b0565b92915050565b6000819050919050565b6114ed816114da565b81146114f857600080fd5b50565b60008135905061150a816114e4565b92915050565b6000602082840312156115265761152561141a565b5b6000611534848285016114fb565b91505092915050565b600073ffffffffffffffffffffffffffffffffffffffff82169050919050565b60006115688261153d565b9050919050565b6115788161155d565b811461158357600080fd5b50565b6000813590506115958161156f565b92915050565b600080604083850312156115b2576115b161141a565b5b60006115c085828601611586565b92505060206115d1858286016114fb565b9150509250929050565b6000819050919050565b6115ee816115db565b82525050565b600060208201905061160960008301846115e5565b92915050565b611618816115db565b811461162357600080fd5b50565b6000813590506116358161160f565b92915050565b6000602082840312156116515761165061141a565b5b600061165f84828501611626565b91505092915050565b611671816114da565b82525050565b600060208201905061168c6000830184611668565b92915050565b600080604083850312156116a9576116a861141a565b5b60006116b785828601611626565b92505060206116c885828601611586565b9150509250929050565b6000602082840312156116e8576116e761141a565b5b60006116f684828501611586565b91505092915050565b60006040820190506117146000830185611668565b6117216020830184611668565b9392505050565b6000806000606084860312156117415761174061141a565b5b600061174f86828701611626565b9350506020611760868287016114fb565b9250506040611771868287016114fb565b9150509250925092565b6117848161155d565b82525050565b600060208201905061179f600083018461177b565b92915050565b600082825260208201905092915050565b7f416363657373436f6e74726f6c3a2063616e206f6e6c792072656e6f756e636560008201527f20726f6c657320666f722073656c660000000000000000000000000000000000602082015250565b6000611812602f836117a5565b915061181d826117b6565b604082019050919050565b6000602082019050818103600083015261184181611805565b9050919050565b600081519050611857816114e4565b92915050565b6000602082840312156118735761187261141a565b5b600061188184828501611848565b91505092915050565b6000819050919050565b6000819050919050565b60006118b96118b46118af8461188a565b611894565b6114da565b9050919050565b6118c98161189e565b82525050565b60006040820190506118e4600083018561177b565b6118f160208301846118c0565b9392505050565b611901816114a4565b811461190c57600080fd5b50565b60008151905061191e816118f8565b92915050565b60006020828403121561193a5761193961141a565b5b60006119488482850161190f565b91505092915050565b6000604082019050611966600083018561177b565b6119736020830184611668565b9392505050565b7f436f54617820746f6b656e2062616c616e6365206c657373207468616e20746860008201527f726573686f6c6400000000000000000000000000000000000000000000000000602082015250565b60006119d66027836117a5565b91506119e18261197a565b604082019050919050565b60006020820190508181036000830152611a05816119c9565b9050919050565b7f4e487b7100000000000000000000000000000000000000000000000000000000600052601160045260246000fd5b6000611a46826114da565b9150611a51836114da565b925082821015611a6457611a63611a0c565b5b828203905092915050565b600081905092915050565b7f416363657373436f6e74726f6c3a206163636f756e7420000000000000000000600082015250565b6000611ab0601783611a6f565b9150611abb82611a7a565b601782019050919050565b600081519050919050565b60005b83811015611aef578082015181840152602081019050611ad4565b83811115611afe576000848401525b50505050565b6000611b0f82611ac6565b611b198185611a6f565b9350611b29818560208601611ad1565b80840191505092915050565b7f206973206d697373696e6720726f6c6520000000000000000000000000000000600082015250565b6000611b6b601183611a6f565b9150611b7682611b35565b601182019050919050565b6000611b8c82611aa3565b9150611b988285611b04565b9150611ba382611b5e565b9150611baf8284611b04565b91508190509392505050565b6000601f19601f8301169050919050565b6000611bd782611ac6565b611be181856117a5565b9350611bf1818560208601611ad1565b611bfa81611bbb565b840191505092915050565b60006020820190508181036000830152611c1f8184611bcc565b905092915050565b6000611c32826114da565b9150611c3d836114da565b9250817fffffffffffffffffffffffffffffffffffffffffffffffffffffffffffffffff0483118215151615611c7657611c75611a0c565b5b828202905092915050565b6000611c8c826114da565b9150611c97836114da565b9250827fffffffffffffffffffffffffffffffffffffffffffffffffffffffffffffffff03821115611ccc57611ccb611a0c565b5b828201905092915050565b7f4e487b7100000000000000000000000000000000000000000000000000000000600052604160045260246000fd5b7f4e487b7100000000000000000000000000000000000000000000000000000000600052603260045260246000fd5b6000611d40826114da565b915060008203611d5357611d52611a0c565b5b600182039050919050565b7f537472696e67733a20686578206c656e67746820696e73756666696369656e74600082015250565b6000611d946020836117a5565b9150611d9f82611d5e565b602082019050919050565b60006020820190508181036000830152611dc381611d87565b905091905056fea2646970667358221220ccb852b72eb5f9ee47655c56b5f43f4cc22702b83bb40d6862aa36b9f3e6467a64736f6c634300080e0033",
  "immutableReferences": {},
  "source": "// SPDX-License-Identifier: MIT\npragma solidity ^0.8.0;\nimport \"@openzeppelin/contracts/access/AccessControl.sol\";\nimport \"./CoTax.sol\";\n\n// import \"@openzeppelin/contracts/token/CoTax/CoTax.sol\";\n\ncontract Gov_side is AccessControl {\n    bytes32[] private all_industry = [\n        FOOD_ROLE,\n        TECHNOLOGY_ROLE,\n        MANUFACTURING_ROLE,\n        AGRICULTURE_ROLE\n    ];\n    uint256 public MIN_CORTEX_AMT = 5000000000000000000;\n    address public owner;\n    // bytes32[] Indus_types;\n    struct Emition_Limits {\n        uint256 MIN_EMITION;\n        uint256 MAX_EMITION;\n    }\n\n    struct comp_data {\n        address owner;\n        string comp_name;\n        address comp_contract_address;\n        uint256 time_stamp;\n        bytes32 comp_type;\n        uint256 total_emision;\n    }\n\n    CoTax private CoTax_tkn;\n\n    constructor(CoTax _CoTax_tkn) {\n        owner = msg.sender;\n        CoTax_tkn = _CoTax_tkn;\n        _grantRole(DEFAULT_ADMIN_ROLE, msg.sender);\n        _grantRole(HEAD_ROLE, msg.sender);\n        _grantRole(PAY_ROLE, address(this));\n    }\n\n    /**\n    carbon_caps is used to store diffrent carbon caps for each industry\n    */\n    mapping(bytes32 => Emition_Limits) public carbon_caps;\n    mapping(address => bytes32) internal rolesOfComp;\n    mapping(address => mapping(uint256 => uint256)) public past_record_emition;\n\n    function set_caps(\n        bytes32 catagory,\n        uint256 _MAX_EMITION,\n        uint256 _MIN_EMITION\n    ) public onlyRole(HEAD_ROLE) {\n        // carbon_caps[Indus_types[0]]\n        Emition_Limits storage bro = carbon_caps[catagory];\n        bro.MIN_EMITION = _MIN_EMITION;\n        bro.MAX_EMITION = _MAX_EMITION;\n    }\n\n    function whitelist_comp(address _comp_add) public {\n        uint256 tkn_amount = CoTax(CoTax_tkn).balanceOf(_comp_add);\n        if (tkn_amount >= MIN_CORTEX_AMT) {\n            _grantRole(INDUSTRY_ROLE, _comp_add);\n        } else {\n            revert(\"CoTax token balance less than threshold\");\n        }\n    }\n\n    function change_minCortex(uint256 amt) external onlyRole(HEAD_ROLE) {\n        MIN_CORTEX_AMT = amt;\n    }\n\n    function return_Cortex_amt(address _to) public view returns (uint256) {\n        uint256 tkn_amount = CoTax(CoTax_tkn).balanceOf(_to);\n        return tkn_amount;\n    }\n\n    function transfer_cortex(address _to, uint256 amount)\n        public\n        onlyRole(INDUSTRY_ROLE)\n        returns (bool)\n    {\n        return CoTax(CoTax_tkn).transfer(_to, amount);\n    }\n\n    function tax_calculate(address comp_add, uint256 gas_emition)\n        public\n        returns (bool)\n    {\n        past_record_emition[comp_add][block.timestamp] = gas_emition;\n        return tax(comp_add, gas_emition);\n    }\n\n    function transfer_to_CS() public onlyRole(HEAD_ROLE) {\n        CoTax(CoTax_tkn).transfer(address(CoTax_tkn), 1000000000000000000000);\n    }\n\n    /**\n    ---------------------------------\n                INTERNAL\n    ---------------------------------\n    */\n\n    function tax(address comp_add, uint256 gas_emition)\n        internal\n        returns (bool)\n    {\n        bytes32 role = rolesOfComp[comp_add];\n        require(hasRole(role, comp_add));\n        if (gas_emition <= carbon_caps[rolesOfComp[comp_add]].MIN_EMITION) {\n            uint256 cal_reward = carbon_caps[rolesOfComp[comp_add]]\n                .MIN_EMITION - gas_emition;\n            _give_reward(comp_add, cal_reward);\n            return true;\n        } else if (\n            gas_emition <= carbon_caps[rolesOfComp[comp_add]].MAX_EMITION\n        ) {} else {\n            // uint256 extra = gas_emition -\n            //     carbon_caps[rolesOfComp[comp_add]].MAX_EMITION;\n            // return extra*2\n        }\n    }\n\n    function _cut_tax(address comp_add, uint256 _amount) internal {\n        CoTax(CoTax_tkn).Transfer_to_gov(comp_add, owner, _amount);\n    }\n\n    function _give_reward(address comp_add, uint256 gas_emition_diff) internal {\n        uint256 cal_reward = gas_emition_diff * 100000000000000000;\n        CoTax(CoTax_tkn).transfer(comp_add, cal_reward);\n    }\n\n    function verify_indus(bytes32 name) internal view returns (bool) {\n        uint256 flag = 0;\n        for (uint256 i = 0; i < all_industry.length; i++) {\n            if (all_industry[i] == name) {\n                flag = 1;\n            }\n        }\n        require(flag == 1, \"ROLE not found\");\n        return true;\n    }\n\n    function govAddress() internal view returns (address) {\n        return address(this);\n    }\n}\n// CoTax(tokenAddress).balanceOf(address(this))\n/**\n    struct comp_data {\n        string comp_name;\n        address comp_contract_address;\n        uint256 past_year_emition;\n        bytes32 comp_type;\n    }\n     */\n// to transfer the tokens to another comp- use onlyasccess\n",
  "sourcePath": "/Users/yaksheshgupta/Desktop/TRINIT_teamLite_WEB01/BACKEND/contracts/gov.sol",
  "compiler": {
    "name": "solc",
    "version": "0.8.14+commit.80d49f37.Emscripten.clang"
  },
  "schemaVersion": "3.4.7",
  "updatedAt": "2023-02-11T23:43:07.622Z",
  "networkType": "ethereum",
  "devdoc": {
    "kind": "dev",
    "methods": {
      "getRoleAdmin(bytes32)": {
        "details": "Returns the admin role that controls `role`. See {grantRole} and {revokeRole}. To change a role's admin, use {_setRoleAdmin}."
      },
      "grantRole(bytes32,address)": {
        "details": "Grants `role` to `account`. If `account` had not been already granted `role`, emits a {RoleGranted} event. Requirements: - the caller must have ``role``'s admin role. May emit a {RoleGranted} event."
      },
      "hasRole(bytes32,address)": {
        "details": "Returns `true` if `account` has been granted `role`."
      },
      "renounceRole(bytes32,address)": {
        "details": "Revokes `role` from the calling account. Roles are often managed via {grantRole} and {revokeRole}: this function's purpose is to provide a mechanism for accounts to lose their privileges if they are compromised (such as when a trusted device is misplaced). If the calling account had been revoked `role`, emits a {RoleRevoked} event. Requirements: - the caller must be `account`. May emit a {RoleRevoked} event."
      },
      "revokeRole(bytes32,address)": {
        "details": "Revokes `role` from `account`. If `account` had been granted `role`, emits a {RoleRevoked} event. Requirements: - the caller must have ``role``'s admin role. May emit a {RoleRevoked} event."
      },
      "supportsInterface(bytes4)": {
        "details": "See {IERC165-supportsInterface}."
      }
    },
    "version": 1
  },
  "userdoc": {
    "kind": "user",
    "methods": {
      "carbon_caps(bytes32)": {
        "notice": "carbon_caps is used to store diffrent carbon caps for each industry"
      }
    },
    "version": 1
  }
}