{
  "contractName": "Indus_side",
  "abi": [
    {
      "inputs": [
        {
          "internalType": "address",
          "name": "_owner_",
          "type": "address"
        },
        {
          "internalType": "string",
          "name": "_comp_name",
          "type": "string"
        },
        {
          "internalType": "bytes32",
          "name": "_type",
          "type": "bytes32"
        },
        {
          "internalType": "contract Gov_side",
          "name": "_govCon",
          "type": "address"
        },
        {
          "internalType": "uint256",
          "name": "_deploy_time",
          "type": "uint256"
        },
        {
          "internalType": "uint256",
          "name": "_prev_emition",
          "type": "uint256"
        }
      ],
      "stateMutability": "nonpayable",
      "type": "constructor"
    },
    {
      "anonymous": false,
      "inputs": [
        {
          "indexed": true,
          "internalType": "bytes32",
          "name": "role",
          "type": "bytes32"
        },
        {
          "indexed": true,
          "internalType": "bytes32",
          "name": "previousAdminRole",
          "type": "bytes32"
        },
        {
          "indexed": true,
          "internalType": "bytes32",
          "name": "newAdminRole",
          "type": "bytes32"
        }
      ],
      "name": "RoleAdminChanged",
      "type": "event"
    },
    {
      "anonymous": false,
      "inputs": [
        {
          "indexed": true,
          "internalType": "bytes32",
          "name": "role",
          "type": "bytes32"
        },
        {
          "indexed": true,
          "internalType": "address",
          "name": "account",
          "type": "address"
        },
        {
          "indexed": true,
          "internalType": "address",
          "name": "sender",
          "type": "address"
        }
      ],
      "name": "RoleGranted",
      "type": "event"
    },
    {
      "anonymous": false,
      "inputs": [
        {
          "indexed": true,
          "internalType": "bytes32",
          "name": "role",
          "type": "bytes32"
        },
        {
          "indexed": true,
          "internalType": "address",
          "name": "account",
          "type": "address"
        },
        {
          "indexed": true,
          "internalType": "address",
          "name": "sender",
          "type": "address"
        }
      ],
      "name": "RoleRevoked",
      "type": "event"
    },
    {
      "inputs": [],
      "name": "AGRICULTURE_ROLE",
      "outputs": [
        {
          "internalType": "bytes32",
          "name": "",
          "type": "bytes32"
        }
      ],
      "stateMutability": "view",
      "type": "function"
    },
    {
      "inputs": [],
      "name": "DEFAULT_ADMIN_ROLE",
      "outputs": [
        {
          "internalType": "bytes32",
          "name": "",
          "type": "bytes32"
        }
      ],
      "stateMutability": "view",
      "type": "function"
    },
    {
      "inputs": [],
      "name": "FOOD_ROLE",
      "outputs": [
        {
          "internalType": "bytes32",
          "name": "",
          "type": "bytes32"
        }
      ],
      "stateMutability": "view",
      "type": "function"
    },
    {
      "inputs": [],
      "name": "HEAD_ROLE",
      "outputs": [
        {
          "internalType": "bytes32",
          "name": "",
          "type": "bytes32"
        }
      ],
      "stateMutability": "view",
      "type": "function"
    },
    {
      "inputs": [],
      "name": "INDUSTRY_ROLE",
      "outputs": [
        {
          "internalType": "bytes32",
          "name": "",
          "type": "bytes32"
        }
      ],
      "stateMutability": "view",
      "type": "function"
    },
    {
      "inputs": [],
      "name": "MANUFACTURING_ROLE",
      "outputs": [
        {
          "internalType": "bytes32",
          "name": "",
          "type": "bytes32"
        }
      ],
      "stateMutability": "view",
      "type": "function"
    },
    {
      "inputs": [],
      "name": "PAY_ROLE",
      "outputs": [
        {
          "internalType": "bytes32",
          "name": "",
          "type": "bytes32"
        }
      ],
      "stateMutability": "view",
      "type": "function"
    },
    {
      "inputs": [],
      "name": "TECHNOLOGY_ROLE",
      "outputs": [
        {
          "internalType": "bytes32",
          "name": "",
          "type": "bytes32"
        }
      ],
      "stateMutability": "view",
      "type": "function"
    },
    {
      "inputs": [
        {
          "internalType": "bytes32",
          "name": "role",
          "type": "bytes32"
        }
      ],
      "name": "getRoleAdmin",
      "outputs": [
        {
          "internalType": "bytes32",
          "name": "",
          "type": "bytes32"
        }
      ],
      "stateMutability": "view",
      "type": "function"
    },
    {
      "inputs": [
        {
          "internalType": "bytes32",
          "name": "role",
          "type": "bytes32"
        },
        {
          "internalType": "address",
          "name": "account",
          "type": "address"
        }
      ],
      "name": "grantRole",
      "outputs": [],
      "stateMutability": "nonpayable",
      "type": "function"
    },
    {
      "inputs": [
        {
          "internalType": "bytes32",
          "name": "role",
          "type": "bytes32"
        },
        {
          "internalType": "address",
          "name": "account",
          "type": "address"
        }
      ],
      "name": "hasRole",
      "outputs": [
        {
          "internalType": "bool",
          "name": "",
          "type": "bool"
        }
      ],
      "stateMutability": "view",
      "type": "function"
    },
    {
      "inputs": [],
      "name": "owner",
      "outputs": [
        {
          "internalType": "address",
          "name": "",
          "type": "address"
        }
      ],
      "stateMutability": "view",
      "type": "function"
    },
    {
      "inputs": [
        {
          "internalType": "bytes32",
          "name": "role",
          "type": "bytes32"
        },
        {
          "internalType": "address",
          "name": "account",
          "type": "address"
        }
      ],
      "name": "renounceRole",
      "outputs": [],
      "stateMutability": "nonpayable",
      "type": "function"
    },
    {
      "inputs": [
        {
          "internalType": "bytes32",
          "name": "role",
          "type": "bytes32"
        },
        {
          "internalType": "address",
          "name": "account",
          "type": "address"
        }
      ],
      "name": "revokeRole",
      "outputs": [],
      "stateMutability": "nonpayable",
      "type": "function"
    },
    {
      "inputs": [
        {
          "internalType": "bytes4",
          "name": "interfaceId",
          "type": "bytes4"
        }
      ],
      "name": "supportsInterface",
      "outputs": [
        {
          "internalType": "bool",
          "name": "",
          "type": "bool"
        }
      ],
      "stateMutability": "view",
      "type": "function"
    },
    {
      "inputs": [],
      "name": "_owner",
      "outputs": [
        {
          "internalType": "address",
          "name": "",
          "type": "address"
        }
      ],
      "stateMutability": "view",
      "type": "function"
    },
    {
      "inputs": [],
      "name": "company_name",
      "outputs": [
        {
          "internalType": "string",
          "name": "",
          "type": "string"
        }
      ],
      "stateMutability": "view",
      "type": "function"
    },
    {
      "inputs": [],
      "name": "company_type",
      "outputs": [
        {
          "internalType": "bytes32",
          "name": "",
          "type": "bytes32"
        }
      ],
      "stateMutability": "view",
      "type": "function"
    },
    {
      "inputs": [],
      "name": "deployed_time",
      "outputs": [
        {
          "internalType": "uint256",
          "name": "",
          "type": "uint256"
        }
      ],
      "stateMutability": "view",
      "type": "function"
    },
    {
      "inputs": [],
      "name": "previous_emition",
      "outputs": [
        {
          "internalType": "uint256",
          "name": "",
          "type": "uint256"
        }
      ],
      "stateMutability": "view",
      "type": "function"
    },
    {
      "inputs": [
        {
          "internalType": "address",
          "name": "_to",
          "type": "address"
        },
        {
          "internalType": "uint256",
          "name": "amount",
          "type": "uint256"
        }
      ],
      "name": "transfer_bw_comp",
      "outputs": [
        {
          "internalType": "bool",
          "name": "",
          "type": "bool"
        }
      ],
      "stateMutability": "nonpayable",
      "type": "function"
    },
    {
      "inputs": [],
      "name": "request_for_whitelist",
      "outputs": [],
      "stateMutability": "nonpayable",
      "type": "function"
    },
    {
      "inputs": [
        {
          "internalType": "uint256",
          "name": "_amount_emited",
          "type": "uint256"
        }
      ],
      "name": "pay_tax",
      "outputs": [
        {
          "internalType": "bool",
          "name": "",
          "type": "bool"
        }
      ],
      "stateMutability": "nonpayable",
      "type": "function"
    }
  ],
  "bytecode": "0x60a06040523480156200001157600080fd5b506040516200210038038062002100833981810160405281019062000037919062000461565b85600560006101000a81548173ffffffffffffffffffffffffffffffffffffffff021916908373ffffffffffffffffffffffffffffffffffffffff160217905550846001908051906020019062000090929190620000f4565b50836080818152505082600260006101000a81548173ffffffffffffffffffffffffffffffffffffffff021916908373ffffffffffffffffffffffffffffffffffffffff160217905550816003819055508060048190555050505050505062000580565b82805462000102906200054b565b90600052602060002090601f01602090048101928262000126576000855562000172565b82601f106200014157805160ff191683800117855562000172565b8280016001018555821562000172579182015b828111156200017157825182559160200191906001019062000154565b5b50905062000181919062000185565b5090565b5b80821115620001a057600081600090555060010162000186565b5090565b6000604051905090565b600080fd5b600080fd5b600073ffffffffffffffffffffffffffffffffffffffff82169050919050565b6000620001e582620001b8565b9050919050565b620001f781620001d8565b81146200020357600080fd5b50565b6000815190506200021781620001ec565b92915050565b600080fd5b600080fd5b6000601f19601f8301169050919050565b7f4e487b7100000000000000000000000000000000000000000000000000000000600052604160045260246000fd5b620002728262000227565b810181811067ffffffffffffffff8211171562000294576200029362000238565b5b80604052505050565b6000620002a9620001a4565b9050620002b7828262000267565b919050565b600067ffffffffffffffff821115620002da57620002d962000238565b5b620002e58262000227565b9050602081019050919050565b60005b8381101562000312578082015181840152602081019050620002f5565b8381111562000322576000848401525b50505050565b60006200033f6200033984620002bc565b6200029d565b9050828152602081018484840111156200035e576200035d62000222565b5b6200036b848285620002f2565b509392505050565b600082601f8301126200038b576200038a6200021d565b5b81516200039d84826020860162000328565b91505092915050565b6000819050919050565b620003bb81620003a6565b8114620003c757600080fd5b50565b600081519050620003db81620003b0565b92915050565b6000620003ee82620001d8565b9050919050565b6200040081620003e1565b81146200040c57600080fd5b50565b6000815190506200042081620003f5565b92915050565b6000819050919050565b6200043b8162000426565b81146200044757600080fd5b50565b6000815190506200045b8162000430565b92915050565b60008060008060008060c08789031215620004815762000480620001ae565b5b60006200049189828a0162000206565b965050602087015167ffffffffffffffff811115620004b557620004b4620001b3565b5b620004c389828a0162000373565b9550506040620004d689828a01620003ca565b9450506060620004e989828a016200040f565b9350506080620004fc89828a016200044a565b92505060a06200050f89828a016200044a565b9150509295509295509295565b7f4e487b7100000000000000000000000000000000000000000000000000000000600052602260045260246000fd5b600060028204905060018216806200056457607f821691505b6020821081036200057a57620005796200051c565b5b50919050565b608051611b646200059c60003960006109c50152611b646000f3fe608060405234801561001057600080fd5b506004361061014d5760003560e01c8063918437cb116100c3578063c1e608121161007c578063c1e6081214610380578063c342ca6b1461039e578063ca7bf28d146103ce578063d547741f146103ec578063dfedacb314610408578063e97283ca146104265761014d565b8063918437cb146102ba57806391d14854146102d857806396167d1b14610308578063a217fddf14610326578063b2bdfa7b14610344578063b2d7631c146103625761014d565b80633bf2a9f4116101155780633bf2a9f414610208578063463f06a1146102265780636d3491ec146102445780637b6e731c146102625780637e1e108b1461026c5780638da5cb5b1461029c5761014d565b806301ffc9a7146101525780632241862b14610182578063248a9ca3146101a05780632f2ff15d146101d057806336568abe146101ec575b600080fd5b61016c60048036038101906101679190611214565b610444565b604051610179919061125c565b60405180910390f35b61018a6104be565b6040516101979190611290565b60405180910390f35b6101ba60048036038101906101b591906112d7565b6104e2565b6040516101c79190611290565b60405180910390f35b6101ea60048036038101906101e59190611362565b610501565b005b61020660048036038101906102019190611362565b610522565b005b6102106105a5565b60405161021d9190611290565b60405180910390f35b61022e6105c9565b60405161023b919061143b565b60405180910390f35b61024c61065b565b6040516102599190611290565b60405180910390f35b61026a61067f565b005b61028660048036038101906102819190611493565b61070e565b604051610293919061125c565b60405180910390f35b6102a461099b565b6040516102b191906114e2565b60405180910390f35b6102c26109c1565b6040516102cf9190611290565b60405180910390f35b6102f260048036038101906102ed9190611362565b6109e9565b6040516102ff919061125c565b60405180910390f35b610310610a53565b60405161031d9190611290565b60405180910390f35b61032e610a77565b60405161033b9190611290565b60405180910390f35b61034c610a7e565b60405161035991906114e2565b60405180910390f35b61036a610aa8565b604051610377919061150c565b60405180910390f35b610388610ab2565b6040516103959190611290565b60405180910390f35b6103b860048036038101906103b39190611527565b610ad6565b6040516103c5919061125c565b60405180910390f35b6103d6610c0f565b6040516103e3919061150c565b60405180910390f35b61040660048036038101906104019190611362565b610c19565b005b610410610c3a565b60405161041d9190611290565b60405180910390f35b61042e610c5e565b60405161043b9190611290565b60405180910390f35b60007f7965db0b000000000000000000000000000000000000000000000000000000007bffffffffffffffffffffffffffffffffffffffffffffffffffffffff1916827bffffffffffffffffffffffffffffffffffffffffffffffffffffffff191614806104b757506104b682610c82565b5b9050919050565b7f0a6437be3d409e943b51a5a15faa0c00efa44eb7c8b707f3502502a406f3c7f881565b6000806000838152602001908152602001600020600101549050919050565b61050a826104e2565b61051381610cec565b61051d8383610d00565b505050565b61052a610de0565b73ffffffffffffffffffffffffffffffffffffffff168173ffffffffffffffffffffffffffffffffffffffff1614610597576040517f08c379a000000000000000000000000000000000000000000000000000000000815260040161058e906115c6565b60405180910390fd5b6105a18282610de8565b5050565b7fd7aa2ddfa4e381128202bf365b7e0a176f2fca6cdf2f23c2b0a6f4393769589081565b6060600180546105d890611615565b80601f016020809104026020016040519081016040528092919081815260200182805461060490611615565b80156106515780601f1061062657610100808354040283529160200191610651565b820191906000526020600020905b81548152906001019060200180831161063457829003601f168201915b5050505050905090565b7f067a7283e9fa435a2cc6bf2bc9d402b66be84693c88be7e59ff28ee68238b50581565b600260009054906101000a900473ffffffffffffffffffffffffffffffffffffffff1673ffffffffffffffffffffffffffffffffffffffff1663d95b0bd9306040518263ffffffff1660e01b81526004016106da91906114e2565b600060405180830381600087803b1580156106f457600080fd5b505af1158015610708573d6000803e3d6000fd5b50505050565b600061073a7f067a7283e9fa435a2cc6bf2bc9d402b66be84693c88be7e59ff28ee68238b505846109e9565b610779576040517f08c379a000000000000000000000000000000000000000000000000000000000815260040161077090611692565b60405180910390fd5b6000600260009054906101000a900473ffffffffffffffffffffffffffffffffffffffff1673ffffffffffffffffffffffffffffffffffffffff1663506f3dd5306040518263ffffffff1660e01b81526004016107d691906114e2565b602060405180830381865afa1580156107f3573d6000803e3d6000fd5b505050506040513d601f19601f8201168201806040525081019061081791906116c7565b90506000600260009054906101000a900473ffffffffffffffffffffffffffffffffffffffff1673ffffffffffffffffffffffffffffffffffffffff1663b5da73a86040518163ffffffff1660e01b8152600401602060405180830381865afa158015610888573d6000803e3d6000fd5b505050506040513d601f19601f820116820180604052508101906108ac91906116c7565b9050808210156108f1576040517f08c379a00000000000000000000000000000000000000000000000000000000081526004016108e890611740565b60405180910390fd5b600260009054906101000a900473ffffffffffffffffffffffffffffffffffffffff1673ffffffffffffffffffffffffffffffffffffffff166398c28a3986866040518363ffffffff1660e01b815260040161094e929190611760565b6020604051808303816000875af115801561096d573d6000803e3d6000fd5b505050506040513d601f19601f8201168201806040525081019061099191906117b5565b9250505092915050565b600560009054906101000a900473ffffffffffffffffffffffffffffffffffffffff1681565b60007f0000000000000000000000000000000000000000000000000000000000000000905090565b600080600084815260200190815260200160002060000160008373ffffffffffffffffffffffffffffffffffffffff1673ffffffffffffffffffffffffffffffffffffffff16815260200190815260200160002060009054906101000a900460ff16905092915050565b7fa51b6b45fbf50a47b1a527fdd6887d77c11bd552d6841fb0dad35c15e3adbd1181565b6000801b81565b6000600560009054906101000a900473ffffffffffffffffffffffffffffffffffffffff16905090565b6000600454905090565b7f67ece15bd133b11598a907fb44de3d08dcf88cadd66731837f0274813fae477481565b6000600560009054906101000a900473ffffffffffffffffffffffffffffffffffffffff1673ffffffffffffffffffffffffffffffffffffffff163373ffffffffffffffffffffffffffffffffffffffff1614610b68576040517f08c379a0000000000000000000000000000000000000000000000000000000008152600401610b5f9061182e565b60405180910390fd5b600260009054906101000a900473ffffffffffffffffffffffffffffffffffffffff1673ffffffffffffffffffffffffffffffffffffffff16632069b32530846040518363ffffffff1660e01b8152600401610bc5929190611760565b6020604051808303816000875af1158015610be4573d6000803e3d6000fd5b505050506040513d601f19601f82011682018060405250810190610c0891906117b5565b9050919050565b6000600354905090565b610c22826104e2565b610c2b81610cec565b610c358383610de8565b505050565b7f8c033fe0d299513a093a57259d2aadd8834281ceab2965b2eba7e0666f08c6bb81565b7f85fc32380ab4247f891d38c2dfc69761709c5069b06e5700b787d65c3428817f81565b60007f01ffc9a7000000000000000000000000000000000000000000000000000000007bffffffffffffffffffffffffffffffffffffffffffffffffffffffff1916827bffffffffffffffffffffffffffffffffffffffffffffffffffffffff1916149050919050565b610cfd81610cf8610de0565b610ec9565b50565b610d0a82826109e9565b610ddc57600160008084815260200190815260200160002060000160008373ffffffffffffffffffffffffffffffffffffffff1673ffffffffffffffffffffffffffffffffffffffff16815260200190815260200160002060006101000a81548160ff021916908315150217905550610d81610de0565b73ffffffffffffffffffffffffffffffffffffffff168173ffffffffffffffffffffffffffffffffffffffff16837f2f8788117e7eff1d82e926ec794901d17c78024a50270940304540a733656f0d60405160405180910390a45b5050565b600033905090565b610df282826109e9565b15610ec557600080600084815260200190815260200160002060000160008373ffffffffffffffffffffffffffffffffffffffff1673ffffffffffffffffffffffffffffffffffffffff16815260200190815260200160002060006101000a81548160ff021916908315150217905550610e6a610de0565b73ffffffffffffffffffffffffffffffffffffffff168173ffffffffffffffffffffffffffffffffffffffff16837ff6391f5c32d9c69d2a47ea670b442974b53935d1edc7fd64eb21e047a839171b60405160405180910390a45b5050565b610ed382826109e9565b610f4a57610ee081610f4e565b610eee8360001c6020610f7b565b604051602001610eff929190611922565b6040516020818303038152906040526040517f08c379a0000000000000000000000000000000000000000000000000000000008152600401610f41919061143b565b60405180910390fd5b5050565b6060610f748273ffffffffffffffffffffffffffffffffffffffff16601460ff16610f7b565b9050919050565b606060006002836002610f8e919061198b565b610f9891906119e5565b67ffffffffffffffff811115610fb157610fb0611a3b565b5b6040519080825280601f01601f191660200182016040528015610fe35781602001600182028036833780820191505090505b5090507f30000000000000000000000000000000000000000000000000000000000000008160008151811061101b5761101a611a6a565b5b60200101907effffffffffffffffffffffffffffffffffffffffffffffffffffffffffffff1916908160001a9053507f78000000000000000000000000000000000000000000000000000000000000008160018151811061107f5761107e611a6a565b5b60200101907effffffffffffffffffffffffffffffffffffffffffffffffffffffffffffff1916908160001a905350600060018460026110bf919061198b565b6110c991906119e5565b90505b6001811115611169577f3031323334353637383961626364656600000000000000000000000000000000600f86166010811061110b5761110a611a6a565b5b1a60f81b82828151811061112257611121611a6a565b5b60200101907effffffffffffffffffffffffffffffffffffffffffffffffffffffffffffff1916908160001a905350600485901c94508061116290611a99565b90506110cc565b50600084146111ad576040517f08c379a00000000000000000000000000000000000000000000000000000000081526004016111a490611b0e565b60405180910390fd5b8091505092915050565b600080fd5b60007fffffffff0000000000000000000000000000000000000000000000000000000082169050919050565b6111f1816111bc565b81146111fc57600080fd5b50565b60008135905061120e816111e8565b92915050565b60006020828403121561122a576112296111b7565b5b6000611238848285016111ff565b91505092915050565b60008115159050919050565b61125681611241565b82525050565b6000602082019050611271600083018461124d565b92915050565b6000819050919050565b61128a81611277565b82525050565b60006020820190506112a56000830184611281565b92915050565b6112b481611277565b81146112bf57600080fd5b50565b6000813590506112d1816112ab565b92915050565b6000602082840312156112ed576112ec6111b7565b5b60006112fb848285016112c2565b91505092915050565b600073ffffffffffffffffffffffffffffffffffffffff82169050919050565b600061132f82611304565b9050919050565b61133f81611324565b811461134a57600080fd5b50565b60008135905061135c81611336565b92915050565b60008060408385031215611379576113786111b7565b5b6000611387858286016112c2565b92505060206113988582860161134d565b9150509250929050565b600081519050919050565b600082825260208201905092915050565b60005b838110156113dc5780820151818401526020810190506113c1565b838111156113eb576000848401525b50505050565b6000601f19601f8301169050919050565b600061140d826113a2565b61141781856113ad565b93506114278185602086016113be565b611430816113f1565b840191505092915050565b600060208201905081810360008301526114558184611402565b905092915050565b6000819050919050565b6114708161145d565b811461147b57600080fd5b50565b60008135905061148d81611467565b92915050565b600080604083850312156114aa576114a96111b7565b5b60006114b88582860161134d565b92505060206114c98582860161147e565b9150509250929050565b6114dc81611324565b82525050565b60006020820190506114f760008301846114d3565b92915050565b6115068161145d565b82525050565b600060208201905061152160008301846114fd565b92915050565b60006020828403121561153d5761153c6111b7565b5b600061154b8482850161147e565b91505092915050565b7f416363657373436f6e74726f6c3a2063616e206f6e6c792072656e6f756e636560008201527f20726f6c657320666f722073656c660000000000000000000000000000000000602082015250565b60006115b0602f836113ad565b91506115bb82611554565b604082019050919050565b600060208201905081810360008301526115df816115a3565b9050919050565b7f4e487b7100000000000000000000000000000000000000000000000000000000600052602260045260246000fd5b6000600282049050600182168061162d57607f821691505b6020821081036116405761163f6115e6565b5b50919050565b7f4e6f7420696e6475737472790000000000000000000000000000000000000000600082015250565b600061167c600c836113ad565b915061168782611646565b602082019050919050565b600060208201905081810360008301526116ab8161166f565b9050919050565b6000815190506116c181611467565b92915050565b6000602082840312156116dd576116dc6111b7565b5b60006116eb848285016116b2565b91505092915050565b7f63616e6e6f7420676f2062656c6f77207468726573686f6c6400000000000000600082015250565b600061172a6019836113ad565b9150611735826116f4565b602082019050919050565b600060208201905081810360008301526117598161171d565b9050919050565b600060408201905061177560008301856114d3565b61178260208301846114fd565b9392505050565b61179281611241565b811461179d57600080fd5b50565b6000815190506117af81611789565b92915050565b6000602082840312156117cb576117ca6111b7565b5b60006117d9848285016117a0565b91505092915050565b7f4e6f74206f776e65720000000000000000000000000000000000000000000000600082015250565b60006118186009836113ad565b9150611823826117e2565b602082019050919050565b600060208201905081810360008301526118478161180b565b9050919050565b600081905092915050565b7f416363657373436f6e74726f6c3a206163636f756e7420000000000000000000600082015250565b600061188f60178361184e565b915061189a82611859565b601782019050919050565b60006118b0826113a2565b6118ba818561184e565b93506118ca8185602086016113be565b80840191505092915050565b7f206973206d697373696e6720726f6c6520000000000000000000000000000000600082015250565b600061190c60118361184e565b9150611917826118d6565b601182019050919050565b600061192d82611882565b915061193982856118a5565b9150611944826118ff565b915061195082846118a5565b91508190509392505050565b7f4e487b7100000000000000000000000000000000000000000000000000000000600052601160045260246000fd5b60006119968261145d565b91506119a18361145d565b9250817fffffffffffffffffffffffffffffffffffffffffffffffffffffffffffffffff04831182151516156119da576119d961195c565b5b828202905092915050565b60006119f08261145d565b91506119fb8361145d565b9250827fffffffffffffffffffffffffffffffffffffffffffffffffffffffffffffffff03821115611a3057611a2f61195c565b5b828201905092915050565b7f4e487b7100000000000000000000000000000000000000000000000000000000600052604160045260246000fd5b7f4e487b7100000000000000000000000000000000000000000000000000000000600052603260045260246000fd5b6000611aa48261145d565b915060008203611ab757611ab661195c565b5b600182039050919050565b7f537472696e67733a20686578206c656e67746820696e73756666696369656e74600082015250565b6000611af86020836113ad565b9150611b0382611ac2565b602082019050919050565b60006020820190508181036000830152611b2781611aeb565b905091905056fea2646970667358221220a141ff833ad9e52254fc9deb2bde040afdc90f70c1e7cdb1d4301a1cdad0253c64736f6c634300080e0033",
  "immutableReferences": {
    "2971": [
      {
        "length": 32,
        "start": 2501
      }
    ]
  },
  "source": "// SPDX-License-Identifier: MIT\npragma solidity ^0.8.0;\nimport \"@openzeppelin/contracts/access/AccessControl.sol\";\nimport \"@openzeppelin/contracts/utils/Counters.sol\";\nimport \"@openzeppelin/contracts/token/ERC20/ERC20.sol\";\nimport \"./gov.sol\";\n\ncontract Indus_side is AccessControl {\n    string private comp_name;\n    Gov_side private govaddress;\n    bytes32 private immutable Industry_type;\n    uint256 private deploy_time;\n    uint256 private prev_emition;\n    address public owner;\n\n    constructor(\n        address _owner_,\n        string memory _comp_name,\n        bytes32 _type,\n        Gov_side _govCon,\n        uint256 _deploy_time,\n        uint256 _prev_emition\n    ) {\n        owner = _owner_;\n        comp_name = _comp_name;\n        Industry_type = _type;\n        govaddress = _govCon;\n        deploy_time = _deploy_time;\n        prev_emition = _prev_emition;\n    }\n\n    function _owner()public view returns(address) {\n        return owner;\n    }\n\n    function company_name() public view returns (string memory) {\n        return comp_name;\n    }\n\n    function company_type() public view returns (bytes32) {\n        return Industry_type;\n    }\n\n    function deployed_time() public view returns (uint256) {\n        return deploy_time;\n    }\n\n    function previous_emition() public view returns (uint256) {\n        return prev_emition;\n    }\n\n    function transfer_bw_comp(address _to, uint256 amount)\n        public\n        returns (bool)\n    {\n        require(hasRole(INDUSTRY_ROLE, _to), \"Not industry\");\n        uint256 tkn_amount = Gov_side(govaddress).return_Cortex_amt(\n            address(this)\n        );\n        uint256 threshold_val = Gov_side(govaddress).MIN_CORTEX_AMT();\n        require(tkn_amount >= threshold_val, \"cannot go below threshold\");\n        return Gov_side(govaddress).transfer_cortex(_to, amount);\n    }\n\n    function request_for_whitelist() external {\n        Gov_side(govaddress).whitelist_comp(address(this));\n    }\n\n    function pay_tax(uint256 _amount_emited) public returns(bool){\n        require(msg.sender == owner, \"Not owner\");\n        return\n            Gov_side(govaddress).tax_calculate(address(this), _amount_emited);\n    }\n}\n",
  "sourcePath": "/Users/yaksheshgupta/Desktop/TRINIT_teamLite_WEB01/BACKEND/contracts/Indus_s.sol",
  "compiler": {
    "name": "solc",
    "version": "0.8.14+commit.80d49f37.Emscripten.clang"
  },
  "schemaVersion": "3.4.7",
  "updatedAt": "2023-02-11T23:43:03.428Z",
  "devdoc": {
    "kind": "dev",
    "methods": {
      "getRoleAdmin(bytes32)": {
        "details": "Returns the admin role that controls `role`. See {grantRole} and {revokeRole}. To change a role's admin, use {_setRoleAdmin}."
      },
      "grantRole(bytes32,address)": {
        "details": "Grants `role` to `account`. If `account` had not been already granted `role`, emits a {RoleGranted} event. Requirements: - the caller must have ``role``'s admin role. May emit a {RoleGranted} event."
      },
      "hasRole(bytes32,address)": {
        "details": "Returns `true` if `account` has been granted `role`."
      },
      "renounceRole(bytes32,address)": {
        "details": "Revokes `role` from the calling account. Roles are often managed via {grantRole} and {revokeRole}: this function's purpose is to provide a mechanism for accounts to lose their privileges if they are compromised (such as when a trusted device is misplaced). If the calling account had been revoked `role`, emits a {RoleRevoked} event. Requirements: - the caller must be `account`. May emit a {RoleRevoked} event."
      },
      "revokeRole(bytes32,address)": {
        "details": "Revokes `role` from `account`. If `account` had been granted `role`, emits a {RoleRevoked} event. Requirements: - the caller must have ``role``'s admin role. May emit a {RoleRevoked} event."
      },
      "supportsInterface(bytes4)": {
        "details": "See {IERC165-supportsInterface}."
      }
    },
    "version": 1
  },
  "userdoc": {
    "kind": "user",
    "methods": {},
    "version": 1
  }
}