{
  "contractName": "Industry_factory",
  "abi": [
    {
      "inputs": [
        {
          "internalType": "contract CoTax",
          "name": "tkn",
          "type": "address"
        }
      ],
      "stateMutability": "nonpayable",
      "type": "constructor"
    },
    {
      "anonymous": false,
      "inputs": [
        {
          "indexed": false,
          "internalType": "uint256",
          "name": "id",
          "type": "uint256"
        },
        {
          "indexed": true,
          "internalType": "string",
          "name": "name",
          "type": "string"
        },
        {
          "indexed": true,
          "internalType": "bytes32",
          "name": "typeOf",
          "type": "bytes32"
        },
        {
          "indexed": true,
          "internalType": "uint256",
          "name": "time",
          "type": "uint256"
        }
      ],
      "name": "New_comp",
      "type": "event"
    },
    {
      "anonymous": false,
      "inputs": [
        {
          "indexed": true,
          "internalType": "bytes32",
          "name": "role",
          "type": "bytes32"
        },
        {
          "indexed": true,
          "internalType": "bytes32",
          "name": "previousAdminRole",
          "type": "bytes32"
        },
        {
          "indexed": true,
          "internalType": "bytes32",
          "name": "newAdminRole",
          "type": "bytes32"
        }
      ],
      "name": "RoleAdminChanged",
      "type": "event"
    },
    {
      "anonymous": false,
      "inputs": [
        {
          "indexed": true,
          "internalType": "bytes32",
          "name": "role",
          "type": "bytes32"
        },
        {
          "indexed": true,
          "internalType": "address",
          "name": "account",
          "type": "address"
        },
        {
          "indexed": true,
          "internalType": "address",
          "name": "sender",
          "type": "address"
        }
      ],
      "name": "RoleGranted",
      "type": "event"
    },
    {
      "anonymous": false,
      "inputs": [
        {
          "indexed": true,
          "internalType": "bytes32",
          "name": "role",
          "type": "bytes32"
        },
        {
          "indexed": true,
          "internalType": "address",
          "name": "account",
          "type": "address"
        },
        {
          "indexed": true,
          "internalType": "address",
          "name": "sender",
          "type": "address"
        }
      ],
      "name": "RoleRevoked",
      "type": "event"
    },
    {
      "inputs": [],
      "name": "AGRICULTURE_ROLE",
      "outputs": [
        {
          "internalType": "bytes32",
          "name": "",
          "type": "bytes32"
        }
      ],
      "stateMutability": "view",
      "type": "function",
      "constant": true
    },
    {
      "inputs": [],
      "name": "DEFAULT_ADMIN_ROLE",
      "outputs": [
        {
          "internalType": "bytes32",
          "name": "",
          "type": "bytes32"
        }
      ],
      "stateMutability": "view",
      "type": "function",
      "constant": true
    },
    {
      "inputs": [],
      "name": "FOOD_ROLE",
      "outputs": [
        {
          "internalType": "bytes32",
          "name": "",
          "type": "bytes32"
        }
      ],
      "stateMutability": "view",
      "type": "function",
      "constant": true
    },
    {
      "inputs": [],
      "name": "HEAD_ROLE",
      "outputs": [
        {
          "internalType": "bytes32",
          "name": "",
          "type": "bytes32"
        }
      ],
      "stateMutability": "view",
      "type": "function",
      "constant": true
    },
    {
      "inputs": [],
      "name": "INDUSTRY_ROLE",
      "outputs": [
        {
          "internalType": "bytes32",
          "name": "",
          "type": "bytes32"
        }
      ],
      "stateMutability": "view",
      "type": "function",
      "constant": true
    },
    {
      "inputs": [],
      "name": "MANUFACTURING_ROLE",
      "outputs": [
        {
          "internalType": "bytes32",
          "name": "",
          "type": "bytes32"
        }
      ],
      "stateMutability": "view",
      "type": "function",
      "constant": true
    },
    {
      "inputs": [],
      "name": "MIN_CORTEX_AMT",
      "outputs": [
        {
          "internalType": "uint256",
          "name": "",
          "type": "uint256"
        }
      ],
      "stateMutability": "view",
      "type": "function",
      "constant": true
    },
    {
      "inputs": [],
      "name": "PAY_ROLE",
      "outputs": [
        {
          "internalType": "bytes32",
          "name": "",
          "type": "bytes32"
        }
      ],
      "stateMutability": "view",
      "type": "function",
      "constant": true
    },
    {
      "inputs": [],
      "name": "TECHNOLOGY_ROLE",
      "outputs": [
        {
          "internalType": "bytes32",
          "name": "",
          "type": "bytes32"
        }
      ],
      "stateMutability": "view",
      "type": "function",
      "constant": true
    },
    {
      "inputs": [
        {
          "internalType": "bytes32",
          "name": "",
          "type": "bytes32"
        }
      ],
      "name": "carbon_caps",
      "outputs": [
        {
          "internalType": "uint256",
          "name": "MIN_EMITION",
          "type": "uint256"
        },
        {
          "internalType": "uint256",
          "name": "MAX_EMITION",
          "type": "uint256"
        }
      ],
      "stateMutability": "view",
      "type": "function",
      "constant": true
    },
    {
      "inputs": [
        {
          "internalType": "uint256",
          "name": "amt",
          "type": "uint256"
        }
      ],
      "name": "change_minCortex",
      "outputs": [],
      "stateMutability": "nonpayable",
      "type": "function"
    },
    {
      "inputs": [
        {
          "internalType": "bytes32",
          "name": "role",
          "type": "bytes32"
        }
      ],
      "name": "getRoleAdmin",
      "outputs": [
        {
          "internalType": "bytes32",
          "name": "",
          "type": "bytes32"
        }
      ],
      "stateMutability": "view",
      "type": "function",
      "constant": true
    },
    {
      "inputs": [
        {
          "internalType": "bytes32",
          "name": "role",
          "type": "bytes32"
        },
        {
          "internalType": "address",
          "name": "account",
          "type": "address"
        }
      ],
      "name": "grantRole",
      "outputs": [],
      "stateMutability": "nonpayable",
      "type": "function"
    },
    {
      "inputs": [
        {
          "internalType": "bytes32",
          "name": "role",
          "type": "bytes32"
        },
        {
          "internalType": "address",
          "name": "account",
          "type": "address"
        }
      ],
      "name": "hasRole",
      "outputs": [
        {
          "internalType": "bool",
          "name": "",
          "type": "bool"
        }
      ],
      "stateMutability": "view",
      "type": "function",
      "constant": true
    },
    {
      "inputs": [],
      "name": "owner",
      "outputs": [
        {
          "internalType": "address",
          "name": "",
          "type": "address"
        }
      ],
      "stateMutability": "view",
      "type": "function",
      "constant": true
    },
    {
      "inputs": [
        {
          "internalType": "address",
          "name": "",
          "type": "address"
        },
        {
          "internalType": "uint256",
          "name": "",
          "type": "uint256"
        }
      ],
      "name": "past_record_emition",
      "outputs": [
        {
          "internalType": "uint256",
          "name": "",
          "type": "uint256"
        }
      ],
      "stateMutability": "view",
      "type": "function",
      "constant": true
    },
    {
      "inputs": [
        {
          "internalType": "bytes32",
          "name": "role",
          "type": "bytes32"
        },
        {
          "internalType": "address",
          "name": "account",
          "type": "address"
        }
      ],
      "name": "renounceRole",
      "outputs": [],
      "stateMutability": "nonpayable",
      "type": "function"
    },
    {
      "inputs": [
        {
          "internalType": "address",
          "name": "_to",
          "type": "address"
        }
      ],
      "name": "return_Cortex_amt",
      "outputs": [
        {
          "internalType": "uint256",
          "name": "",
          "type": "uint256"
        }
      ],
      "stateMutability": "view",
      "type": "function",
      "constant": true
    },
    {
      "inputs": [
        {
          "internalType": "bytes32",
          "name": "role",
          "type": "bytes32"
        },
        {
          "internalType": "address",
          "name": "account",
          "type": "address"
        }
      ],
      "name": "revokeRole",
      "outputs": [],
      "stateMutability": "nonpayable",
      "type": "function"
    },
    {
      "inputs": [
        {
          "internalType": "bytes32",
          "name": "catagory",
          "type": "bytes32"
        },
        {
          "internalType": "uint256",
          "name": "_MAX_EMITION",
          "type": "uint256"
        },
        {
          "internalType": "uint256",
          "name": "_MIN_EMITION",
          "type": "uint256"
        }
      ],
      "name": "set_caps",
      "outputs": [],
      "stateMutability": "nonpayable",
      "type": "function"
    },
    {
      "inputs": [
        {
          "internalType": "bytes4",
          "name": "interfaceId",
          "type": "bytes4"
        }
      ],
      "name": "supportsInterface",
      "outputs": [
        {
          "internalType": "bool",
          "name": "",
          "type": "bool"
        }
      ],
      "stateMutability": "view",
      "type": "function",
      "constant": true
    },
    {
      "inputs": [
        {
          "internalType": "address",
          "name": "comp_add",
          "type": "address"
        },
        {
          "internalType": "uint256",
          "name": "gas_emition",
          "type": "uint256"
        }
      ],
      "name": "tax_calculate",
      "outputs": [
        {
          "internalType": "bool",
          "name": "",
          "type": "bool"
        }
      ],
      "stateMutability": "nonpayable",
      "type": "function"
    },
    {
      "inputs": [
        {
          "internalType": "address",
          "name": "_to",
          "type": "address"
        },
        {
          "internalType": "uint256",
          "name": "amount",
          "type": "uint256"
        }
      ],
      "name": "transfer_cortex",
      "outputs": [
        {
          "internalType": "bool",
          "name": "",
          "type": "bool"
        }
      ],
      "stateMutability": "nonpayable",
      "type": "function"
    },
    {
      "inputs": [],
      "name": "transfer_to_CS",
      "outputs": [],
      "stateMutability": "nonpayable",
      "type": "function"
    },
    {
      "inputs": [
        {
          "internalType": "address",
          "name": "_comp_add",
          "type": "address"
        }
      ],
      "name": "whitelist_comp",
      "outputs": [],
      "stateMutability": "nonpayable",
      "type": "function"
    },
    {
      "inputs": [
        {
          "internalType": "string",
          "name": "_comp_name",
          "type": "string"
        },
        {
          "internalType": "bytes32",
          "name": "_comp_type",
          "type": "bytes32"
        },
        {
          "internalType": "uint256",
          "name": "_total_emision",
          "type": "uint256"
        }
      ],
      "name": "Create_new_comp",
      "outputs": [
        {
          "internalType": "address",
          "name": "",
          "type": "address"
        }
      ],
      "stateMutability": "nonpayable",
      "type": "function"
    },
    {
      "inputs": [],
      "name": "get_all_comp",
      "outputs": [
        {
          "components": [
            {
              "internalType": "address",
              "name": "owner",
              "type": "address"
            },
            {
              "internalType": "string",
              "name": "comp_name",
              "type": "string"
            },
            {
              "internalType": "address",
              "name": "comp_contract_address",
              "type": "address"
            },
            {
              "internalType": "uint256",
              "name": "time_stamp",
              "type": "uint256"
            },
            {
              "internalType": "bytes32",
              "name": "comp_type",
              "type": "bytes32"
            },
            {
              "internalType": "uint256",
              "name": "total_emision",
              "type": "uint256"
            }
          ],
          "internalType": "struct Gov_side.comp_data[]",
          "name": "data",
          "type": "tuple[]"
        }
      ],
      "stateMutability": "view",
      "type": "function",
      "constant": true
    }
  ],
  "bytecode": "0x608060405260405180608001604052807f8c033fe0d299513a093a57259d2aadd8834281ceab2965b2eba7e0666f08c6bb81526020017f0a6437be3d409e943b51a5a15faa0c00efa44eb7c8b707f3502502a406f3c7f881526020017f85fc32380ab4247f891d38c2dfc69761709c5069b06e5700b787d65c3428817f81526020017f67ece15bd133b11598a907fb44de3d08dcf88cadd66731837f0274813fae47748152506001906004620000b79291906200035e565b50674563918244f40000600255348015620000d157600080fd5b50604051620051ba380380620051ba8339818101604052810190620000f791906200044d565b8033600360006101000a81548173ffffffffffffffffffffffffffffffffffffffff021916908373ffffffffffffffffffffffffffffffffffffffff16021790555080600460006101000a81548173ffffffffffffffffffffffffffffffffffffffff021916908373ffffffffffffffffffffffffffffffffffffffff1602179055506200018f6000801b33620001fb60201b60201c565b620001c17fa51b6b45fbf50a47b1a527fdd6887d77c11bd552d6841fb0dad35c15e3adbd1133620001fb60201b60201c565b620001f37fd7aa2ddfa4e381128202bf365b7e0a176f2fca6cdf2f23c2b0a6f4393769589030620001fb60201b60201c565b50506200047f565b6200020d8282620002ec60201b60201c565b620002e857600160008084815260200190815260200160002060000160008373ffffffffffffffffffffffffffffffffffffffff1673ffffffffffffffffffffffffffffffffffffffff16815260200190815260200160002060006101000a81548160ff0219169083151502179055506200028d6200035660201b60201c565b73ffffffffffffffffffffffffffffffffffffffff168173ffffffffffffffffffffffffffffffffffffffff16837f2f8788117e7eff1d82e926ec794901d17c78024a50270940304540a733656f0d60405160405180910390a45b5050565b600080600084815260200190815260200160002060000160008373ffffffffffffffffffffffffffffffffffffffff1673ffffffffffffffffffffffffffffffffffffffff16815260200190815260200160002060009054906101000a900460ff16905092915050565b600033905090565b8280548282559060005260206000209081019282156200039d579160200282015b828111156200039c5782518255916020019190600101906200037f565b5b509050620003ac9190620003b0565b5090565b5b80821115620003cb576000816000905550600101620003b1565b5090565b600080fd5b600073ffffffffffffffffffffffffffffffffffffffff82169050919050565b60006200040182620003d4565b9050919050565b60006200041582620003f4565b9050919050565b620004278162000408565b81146200043357600080fd5b50565b60008151905062000447816200041c565b92915050565b600060208284031215620004665762000465620003cf565b5b6000620004768482850162000436565b91505092915050565b614d2b806200048f6000396000f3fe60806040523480156200001157600080fd5b5060043610620001d25760003560e01c80636a1203a41162000111578063a217fddf11620000a5578063d547741f116200007b578063d547741f146200057c578063d95b0bd9146200059c578063dfedacb314620005bc578063e97283ca14620005de57620001d2565b8063a217fddf1462000516578063b5da73a81462000538578063c1e60812146200055a57620001d2565b806391d1485411620000e757806391d14854146200045257806394d84f9b146200048857806396167d1b14620004be57806398c28a3914620004e057620001d2565b80636a1203a414620003ee5780636d3491ec146200040e5780638da5cb5b146200043057620001d2565b80632600d04c11620001895780633bf2a9f4116200015f5780633bf2a9f41462000353578063506f3dd514620003755780636084f24c14620003ab57806368828a2714620003b757620001d2565b80632600d04c14620002dd5780632f2ff15d146200031357806336568abe146200033357620001d2565b806301ffc9a714620001d7578063020f56e0146200020d5780630acbb669146200022d5780632069b325146200024f5780632241862b1462000285578063248a9ca314620002a7575b600080fd5b620001f56004803603810190620001ef919062001c26565b62000600565b60405162000204919062001c75565b60405180910390f35b6200022b600480360381019062000225919062001ccd565b6200067d565b005b62000237620006b4565b60405162000246919062001f79565b60405180910390f35b6200026d600480360381019062000267919062001fce565b620008e0565b6040516200027c919062001c75565b60405180910390f35b6200028f6200094b565b6040516200029e919062002026565b60405180910390f35b620002c56004803603810190620002bf919062002074565b6200096f565b604051620002d4919062002026565b60405180910390f35b620002fb6004803603810190620002f5919062001fce565b6200098e565b6040516200030a9190620020b7565b60405180910390f35b6200033160048036038101906200032b9190620020d4565b620009b3565b005b6200035160048036038101906200034b9190620020d4565b620009da565b005b6200035d62000a64565b6040516200036c919062002026565b60405180910390f35b6200039360048036038101906200038d91906200211b565b62000a88565b604051620003a29190620020b7565b60405180910390f35b620003b562000b37565b005b620003d56004803603810190620003cf919062002074565b62000c37565b604051620003e59291906200214d565b60405180910390f35b6200040c60048036038101906200040691906200217a565b62000c5b565b005b6200041862000cb7565b60405162000427919062002026565b60405180910390f35b6200043a62000cdb565b604051620004499190620021e7565b60405180910390f35b6200047060048036038101906200046a9190620020d4565b62000d01565b6040516200047f919062001c75565b60405180910390f35b620004a66004803603810190620004a0919062002355565b62000d6b565b604051620004b59190620021e7565b60405180910390f35b620004c862000f5d565b604051620004d7919062002026565b60405180910390f35b620004fe6004803603810190620004f8919062001fce565b62000f81565b6040516200050d919062001c75565b60405180910390f35b620005206200105d565b6040516200052f919062002026565b60405180910390f35b6200054262001064565b604051620005519190620020b7565b60405180910390f35b620005646200106a565b60405162000573919062002026565b60405180910390f35b6200059a6004803603810190620005949190620020d4565b6200108e565b005b620005ba6004803603810190620005b491906200211b565b620010b5565b005b620005c6620011d7565b604051620005d5919062002026565b60405180910390f35b620005e8620011fb565b604051620005f7919062002026565b60405180910390f35b60007f7965db0b000000000000000000000000000000000000000000000000000000007bffffffffffffffffffffffffffffffffffffffffffffffffffffffff1916827bffffffffffffffffffffffffffffffffffffffffffffffffffffffff1916148062000676575062000675826200121f565b5b9050919050565b7fa51b6b45fbf50a47b1a527fdd6887d77c11bd552d6841fb0dad35c15e3adbd11620006a98162001289565b816002819055505050565b606060095467ffffffffffffffff811115620006d557620006d46200220e565b5b6040519080825280602002602001820160405280156200071257816020015b620006fe62001a92565b815260200190600190039081620006f45790505b50905060005b600954811015620008dc57600a60008281526020019081526020016000206040518060c00160405290816000820160009054906101000a900473ffffffffffffffffffffffffffffffffffffffff1673ffffffffffffffffffffffffffffffffffffffff1673ffffffffffffffffffffffffffffffffffffffff168152602001600182018054620007a990620023ff565b80601f0160208091040260200160405190810160405280929190818152602001828054620007d790620023ff565b8015620008285780601f10620007fc5761010080835404028352916020019162000828565b820191906000526020600020905b8154815290600101906020018083116200080a57829003601f168201915b505050505081526020016002820160009054906101000a900473ffffffffffffffffffffffffffffffffffffffff1673ffffffffffffffffffffffffffffffffffffffff1673ffffffffffffffffffffffffffffffffffffffff1681526020016003820154815260200160048201548152602001600582015481525050828281518110620008bb57620008ba62002434565b5b60200260200101819052508080620008d39062002492565b91505062000718565b5090565b600081600760008573ffffffffffffffffffffffffffffffffffffffff1673ffffffffffffffffffffffffffffffffffffffff168152602001908152602001600020600042815260200190815260200160002081905550620009438383620012a1565b905092915050565b7f0a6437be3d409e943b51a5a15faa0c00efa44eb7c8b707f3502502a406f3c7f881565b6000806000838152602001908152602001600020600101549050919050565b6007602052816000526040600020602052806000526040600020600091509150505481565b620009be826200096f565b620009c98162001289565b620009d5838362001433565b505050565b620009e462001518565b73ffffffffffffffffffffffffffffffffffffffff168173ffffffffffffffffffffffffffffffffffffffff161462000a54576040517f08c379a000000000000000000000000000000000000000000000000000000000815260040162000a4b9062002566565b60405180910390fd5b62000a60828262001520565b5050565b7fd7aa2ddfa4e381128202bf365b7e0a176f2fca6cdf2f23c2b0a6f4393769589081565b600080600460009054906101000a900473ffffffffffffffffffffffffffffffffffffffff1673ffffffffffffffffffffffffffffffffffffffff166370a08231846040518263ffffffff1660e01b815260040162000ae89190620021e7565b602060405180830381865afa15801562000b06573d6000803e3d6000fd5b505050506040513d601f19601f8201168201806040525081019062000b2c91906200259f565b905080915050919050565b7fa51b6b45fbf50a47b1a527fdd6887d77c11bd552d6841fb0dad35c15e3adbd1162000b638162001289565b600460009054906101000a900473ffffffffffffffffffffffffffffffffffffffff1673ffffffffffffffffffffffffffffffffffffffff1663a9059cbb600460009054906101000a900473ffffffffffffffffffffffffffffffffffffffff16683635c9adc5dea000006040518363ffffffff1660e01b815260040162000bed9291906200261e565b6020604051808303816000875af115801562000c0d573d6000803e3d6000fd5b505050506040513d601f19601f8201168201806040525081019062000c3391906200267c565b5050565b60056020528060005260406000206000915090508060000154908060010154905082565b7fa51b6b45fbf50a47b1a527fdd6887d77c11bd552d6841fb0dad35c15e3adbd1162000c878162001289565b60006005600086815260200190815260200160002090508281600001819055508381600101819055505050505050565b7f067a7283e9fa435a2cc6bf2bc9d402b66be84693c88be7e59ff28ee68238b50581565b600360009054906101000a900473ffffffffffffffffffffffffffffffffffffffff1681565b600080600084815260200190815260200160002060000160008373ffffffffffffffffffffffffffffffffffffffff1673ffffffffffffffffffffffffffffffffffffffff16815260200190815260200160002060009054906101000a900460ff16905092915050565b600062000d788362001606565b62000d8257600080fd5b60006009600081548092919062000d999062002492565b9190505590506000600a60008381526020019081526020016000209050338160000160006101000a81548173ffffffffffffffffffffffffffffffffffffffff021916908373ffffffffffffffffffffffffffffffffffffffff1602179055508581600101908051906020019062000e1392919062001af7565b50848160040181905550838160050181905550338686600860009054906101000a900473ffffffffffffffffffffffffffffffffffffffff1684600301548860405162000e609062001b88565b62000e719695949392919062002750565b604051809103906000f08015801562000e8e573d6000803e3d6000fd5b508160020160006101000a81548173ffffffffffffffffffffffffffffffffffffffff021916908373ffffffffffffffffffffffffffffffffffffffff16021790555042816003018190555042858760405162000eec919062002806565b60405180910390207f2bab72c61abb46dd6cf598e39056d94e9ce873e4e2c711f03daa05baed4f07218560405162000f259190620020b7565b60405180910390a48060020160009054906101000a900473ffffffffffffffffffffffffffffffffffffffff16925050509392505050565b7fa51b6b45fbf50a47b1a527fdd6887d77c11bd552d6841fb0dad35c15e3adbd1181565b60007f067a7283e9fa435a2cc6bf2bc9d402b66be84693c88be7e59ff28ee68238b50562000faf8162001289565b600460009054906101000a900473ffffffffffffffffffffffffffffffffffffffff1673ffffffffffffffffffffffffffffffffffffffff1663a9059cbb85856040518363ffffffff1660e01b81526004016200100e9291906200281f565b6020604051808303816000875af11580156200102e573d6000803e3d6000fd5b505050506040513d601f19601f820116820180604052508101906200105491906200267c565b91505092915050565b6000801b81565b60025481565b7f67ece15bd133b11598a907fb44de3d08dcf88cadd66731837f0274813fae477481565b62001099826200096f565b620010a48162001289565b620010b0838362001520565b505050565b6000600460009054906101000a900473ffffffffffffffffffffffffffffffffffffffff1673ffffffffffffffffffffffffffffffffffffffff166370a08231836040518263ffffffff1660e01b8152600401620011149190620021e7565b602060405180830381865afa15801562001132573d6000803e3d6000fd5b505050506040513d601f19601f820116820180604052508101906200115891906200259f565b905060025481106200119657620011907f067a7283e9fa435a2cc6bf2bc9d402b66be84693c88be7e59ff28ee68238b5058362001433565b620011d3565b6040517f08c379a0000000000000000000000000000000000000000000000000000000008152600401620011ca90620028c2565b60405180910390fd5b5050565b7f8c033fe0d299513a093a57259d2aadd8834281ceab2965b2eba7e0666f08c6bb81565b7f85fc32380ab4247f891d38c2dfc69761709c5069b06e5700b787d65c3428817f81565b60007f01ffc9a7000000000000000000000000000000000000000000000000000000007bffffffffffffffffffffffffffffffffffffffffffffffffffffffff1916827bffffffffffffffffffffffffffffffffffffffffffffffffffffffff1916149050919050565b6200129e816200129862001518565b620016b3565b50565b600080600660008573ffffffffffffffffffffffffffffffffffffffff1673ffffffffffffffffffffffffffffffffffffffff168152602001908152602001600020549050620012f2818562000d01565b620012fc57600080fd5b60056000600660008773ffffffffffffffffffffffffffffffffffffffff1673ffffffffffffffffffffffffffffffffffffffff168152602001908152602001600020548152602001908152602001600020600001548311620013d85760008360056000600660008973ffffffffffffffffffffffffffffffffffffffff1673ffffffffffffffffffffffffffffffffffffffff16815260200190815260200160002054815260200190815260200160002060000154620013be9190620028e4565b9050620013cc858262001743565b6001925050506200142d565b60056000600660008773ffffffffffffffffffffffffffffffffffffffff1673ffffffffffffffffffffffffffffffffffffffff16815260200190815260200160002054815260200190815260200160002050505b92915050565b6200143f828262000d01565b6200151457600160008084815260200190815260200160002060000160008373ffffffffffffffffffffffffffffffffffffffff1673ffffffffffffffffffffffffffffffffffffffff16815260200190815260200160002060006101000a81548160ff021916908315150217905550620014b962001518565b73ffffffffffffffffffffffffffffffffffffffff168173ffffffffffffffffffffffffffffffffffffffff16837f2f8788117e7eff1d82e926ec794901d17c78024a50270940304540a733656f0d60405160405180910390a45b5050565b600033905090565b6200152c828262000d01565b156200160257600080600084815260200190815260200160002060000160008373ffffffffffffffffffffffffffffffffffffffff1673ffffffffffffffffffffffffffffffffffffffff16815260200190815260200160002060006101000a81548160ff021916908315150217905550620015a762001518565b73ffffffffffffffffffffffffffffffffffffffff168173ffffffffffffffffffffffffffffffffffffffff16837ff6391f5c32d9c69d2a47ea670b442974b53935d1edc7fd64eb21e047a839171b60405160405180910390a45b5050565b6000806000905060005b6001805490508110156200166257836001828154811062001636576200163562002434565b5b9060005260206000200154036200164c57600191505b8080620016599062002492565b91505062001610565b5060018114620016a9576040517f08c379a0000000000000000000000000000000000000000000000000000000008152600401620016a0906200296f565b60405180910390fd5b6001915050919050565b620016bf828262000d01565b6200173f57620016cf8162001808565b620016df8360001c602062001837565b604051602001620016f292919062002a31565b6040516020818303038152906040526040517f08c379a000000000000000000000000000000000000000000000000000000000815260040162001736919062002a73565b60405180910390fd5b5050565b600067016345785d8a0000826200175b919062002a97565b9050600460009054906101000a900473ffffffffffffffffffffffffffffffffffffffff1673ffffffffffffffffffffffffffffffffffffffff1663a9059cbb84836040518363ffffffff1660e01b8152600401620017bc9291906200281f565b6020604051808303816000875af1158015620017dc573d6000803e3d6000fd5b505050506040513d601f19601f820116820180604052508101906200180291906200267c565b50505050565b6060620018308273ffffffffffffffffffffffffffffffffffffffff16601460ff1662001837565b9050919050565b6060600060028360026200184c919062002a97565b62001858919062002af8565b67ffffffffffffffff8111156200187457620018736200220e565b5b6040519080825280601f01601f191660200182016040528015620018a75781602001600182028036833780820191505090505b5090507f300000000000000000000000000000000000000000000000000000000000000081600081518110620018e257620018e162002434565b5b60200101907effffffffffffffffffffffffffffffffffffffffffffffffffffffffffffff1916908160001a9053507f78000000000000000000000000000000000000000000000000000000000000008160018151811062001949576200194862002434565b5b60200101907effffffffffffffffffffffffffffffffffffffffffffffffffffffffffffff1916908160001a905350600060018460026200198b919062002a97565b62001997919062002af8565b90505b600181111562001a41577f3031323334353637383961626364656600000000000000000000000000000000600f861660108110620019dd57620019dc62002434565b5b1a60f81b828281518110620019f757620019f662002434565b5b60200101907effffffffffffffffffffffffffffffffffffffffffffffffffffffffffffff1916908160001a905350600485901c94508062001a399062002b55565b90506200199a565b506000841462001a88576040517f08c379a000000000000000000000000000000000000000000000000000000000815260040162001a7f9062002bd3565b60405180910390fd5b8091505092915050565b6040518060c00160405280600073ffffffffffffffffffffffffffffffffffffffff16815260200160608152602001600073ffffffffffffffffffffffffffffffffffffffff1681526020016000815260200160008019168152602001600081525090565b82805462001b0590620023ff565b90600052602060002090601f01602090048101928262001b29576000855562001b75565b82601f1062001b4457805160ff191683800117855562001b75565b8280016001018555821562001b75579182015b8281111562001b7457825182559160200191906001019062001b57565b5b50905062001b84919062001b96565b5090565b6121008062002bf683390190565b5b8082111562001bb157600081600090555060010162001b97565b5090565b6000604051905090565b600080fd5b600080fd5b60007fffffffff0000000000000000000000000000000000000000000000000000000082169050919050565b62001c008162001bc9565b811462001c0c57600080fd5b50565b60008135905062001c208162001bf5565b92915050565b60006020828403121562001c3f5762001c3e62001bbf565b5b600062001c4f8482850162001c0f565b91505092915050565b60008115159050919050565b62001c6f8162001c58565b82525050565b600060208201905062001c8c600083018462001c64565b92915050565b6000819050919050565b62001ca78162001c92565b811462001cb357600080fd5b50565b60008135905062001cc78162001c9c565b92915050565b60006020828403121562001ce65762001ce562001bbf565b5b600062001cf68482850162001cb6565b91505092915050565b600081519050919050565b600082825260208201905092915050565b6000819050602082019050919050565b600073ffffffffffffffffffffffffffffffffffffffff82169050919050565b600062001d588262001d2b565b9050919050565b62001d6a8162001d4b565b82525050565b600081519050919050565b600082825260208201905092915050565b60005b8381101562001dac57808201518184015260208101905062001d8f565b8381111562001dbc576000848401525b50505050565b6000601f19601f8301169050919050565b600062001de08262001d70565b62001dec818562001d7b565b935062001dfe81856020860162001d8c565b62001e098162001dc2565b840191505092915050565b62001e1f8162001c92565b82525050565b6000819050919050565b62001e3a8162001e25565b82525050565b600060c08301600083015162001e5a600086018262001d5f565b506020830151848203602086015262001e74828262001dd3565b915050604083015162001e8b604086018262001d5f565b50606083015162001ea0606086018262001e14565b50608083015162001eb5608086018262001e2f565b5060a083015162001eca60a086018262001e14565b508091505092915050565b600062001ee3838362001e40565b905092915050565b6000602082019050919050565b600062001f058262001cff565b62001f11818562001d0a565b93508360208202850162001f258562001d1b565b8060005b8581101562001f67578484038952815162001f45858262001ed5565b945062001f528362001eeb565b925060208a0199505060018101905062001f29565b50829750879550505050505092915050565b6000602082019050818103600083015262001f95818462001ef8565b905092915050565b62001fa88162001d4b565b811462001fb457600080fd5b50565b60008135905062001fc88162001f9d565b92915050565b6000806040838503121562001fe85762001fe762001bbf565b5b600062001ff88582860162001fb7565b92505060206200200b8582860162001cb6565b9150509250929050565b620020208162001e25565b82525050565b60006020820190506200203d600083018462002015565b92915050565b6200204e8162001e25565b81146200205a57600080fd5b50565b6000813590506200206e8162002043565b92915050565b6000602082840312156200208d576200208c62001bbf565b5b60006200209d848285016200205d565b91505092915050565b620020b18162001c92565b82525050565b6000602082019050620020ce6000830184620020a6565b92915050565b60008060408385031215620020ee57620020ed62001bbf565b5b6000620020fe858286016200205d565b9250506020620021118582860162001fb7565b9150509250929050565b60006020828403121562002134576200213362001bbf565b5b6000620021448482850162001fb7565b91505092915050565b6000604082019050620021646000830185620020a6565b620021736020830184620020a6565b9392505050565b60008060006060848603121562002196576200219562001bbf565b5b6000620021a6868287016200205d565b9350506020620021b98682870162001cb6565b9250506040620021cc8682870162001cb6565b9150509250925092565b620021e18162001d4b565b82525050565b6000602082019050620021fe6000830184620021d6565b92915050565b600080fd5b600080fd5b7f4e487b7100000000000000000000000000000000000000000000000000000000600052604160045260246000fd5b620022488262001dc2565b810181811067ffffffffffffffff821117156200226a57620022696200220e565b5b80604052505050565b60006200227f62001bb5565b90506200228d82826200223d565b919050565b600067ffffffffffffffff821115620022b057620022af6200220e565b5b620022bb8262001dc2565b9050602081019050919050565b82818337600083830152505050565b6000620022ee620022e88462002292565b62002273565b9050828152602081018484840111156200230d576200230c62002209565b5b6200231a848285620022c8565b509392505050565b600082601f8301126200233a576200233962002204565b5b81356200234c848260208601620022d7565b91505092915050565b60008060006060848603121562002371576200237062001bbf565b5b600084013567ffffffffffffffff81111562002392576200239162001bc4565b5b620023a08682870162002322565b9350506020620023b3868287016200205d565b9250506040620023c68682870162001cb6565b9150509250925092565b7f4e487b7100000000000000000000000000000000000000000000000000000000600052602260045260246000fd5b600060028204905060018216806200241857607f821691505b6020821081036200242e576200242d620023d0565b5b50919050565b7f4e487b7100000000000000000000000000000000000000000000000000000000600052603260045260246000fd5b7f4e487b7100000000000000000000000000000000000000000000000000000000600052601160045260246000fd5b60006200249f8262001c92565b91507fffffffffffffffffffffffffffffffffffffffffffffffffffffffffffffffff8203620024d457620024d362002463565b5b600182019050919050565b600082825260208201905092915050565b7f416363657373436f6e74726f6c3a2063616e206f6e6c792072656e6f756e636560008201527f20726f6c657320666f722073656c660000000000000000000000000000000000602082015250565b60006200254e602f83620024df565b91506200255b82620024f0565b604082019050919050565b6000602082019050818103600083015262002581816200253f565b9050919050565b600081519050620025998162001c9c565b92915050565b600060208284031215620025b857620025b762001bbf565b5b6000620025c88482850162002588565b91505092915050565b6000819050919050565b6000819050919050565b60006200260662002600620025fa84620025d1565b620025db565b62001c92565b9050919050565b6200261881620025e5565b82525050565b6000604082019050620026356000830185620021d6565b6200264460208301846200260d565b9392505050565b620026568162001c58565b81146200266257600080fd5b50565b60008151905062002676816200264b565b92915050565b60006020828403121562002695576200269462001bbf565b5b6000620026a58482850162002665565b91505092915050565b6000620026bb8262001d70565b620026c78185620024df565b9350620026d981856020860162001d8c565b620026e48162001dc2565b840191505092915050565b6000620027106200270a620027048462001d2b565b620025db565b62001d2b565b9050919050565b60006200272482620026ef565b9050919050565b6000620027388262002717565b9050919050565b6200274a816200272b565b82525050565b600060c082019050620027676000830189620021d6565b81810360208301526200277b8188620026ae565b90506200278c604083018762002015565b6200279b60608301866200273f565b620027aa6080830185620020a6565b620027b960a0830184620020a6565b979650505050505050565b600081905092915050565b6000620027dc8262001d70565b620027e88185620027c4565b9350620027fa81856020860162001d8c565b80840191505092915050565b6000620028148284620027cf565b915081905092915050565b6000604082019050620028366000830185620021d6565b620028456020830184620020a6565b9392505050565b7f436f54617820746f6b656e2062616c616e6365206c657373207468616e20746860008201527f726573686f6c6400000000000000000000000000000000000000000000000000602082015250565b6000620028aa602783620024df565b9150620028b7826200284c565b604082019050919050565b60006020820190508181036000830152620028dd816200289b565b9050919050565b6000620028f18262001c92565b9150620028fe8362001c92565b92508282101562002914576200291362002463565b5b828203905092915050565b7f524f4c45206e6f7420666f756e64000000000000000000000000000000000000600082015250565b600062002957600e83620024df565b915062002964826200291f565b602082019050919050565b600060208201905081810360008301526200298a8162002948565b9050919050565b7f416363657373436f6e74726f6c3a206163636f756e7420000000000000000000600082015250565b6000620029c9601783620027c4565b9150620029d68262002991565b601782019050919050565b7f206973206d697373696e6720726f6c6520000000000000000000000000000000600082015250565b600062002a19601183620027c4565b915062002a2682620029e1565b601182019050919050565b600062002a3e82620029ba565b915062002a4c8285620027cf565b915062002a598262002a0a565b915062002a678284620027cf565b91508190509392505050565b6000602082019050818103600083015262002a8f8184620026ae565b905092915050565b600062002aa48262001c92565b915062002ab18362001c92565b9250817fffffffffffffffffffffffffffffffffffffffffffffffffffffffffffffffff048311821515161562002aed5762002aec62002463565b5b828202905092915050565b600062002b058262001c92565b915062002b128362001c92565b9250827fffffffffffffffffffffffffffffffffffffffffffffffffffffffffffffffff0382111562002b4a5762002b4962002463565b5b828201905092915050565b600062002b628262001c92565b91506000820362002b785762002b7762002463565b5b600182039050919050565b7f537472696e67733a20686578206c656e67746820696e73756666696369656e74600082015250565b600062002bbb602083620024df565b915062002bc88262002b83565b602082019050919050565b6000602082019050818103600083015262002bee8162002bac565b905091905056fe60a06040523480156200001157600080fd5b506040516200210038038062002100833981810160405281019062000037919062000461565b85600560006101000a81548173ffffffffffffffffffffffffffffffffffffffff021916908373ffffffffffffffffffffffffffffffffffffffff160217905550846001908051906020019062000090929190620000f4565b50836080818152505082600260006101000a81548173ffffffffffffffffffffffffffffffffffffffff021916908373ffffffffffffffffffffffffffffffffffffffff160217905550816003819055508060048190555050505050505062000580565b82805462000102906200054b565b90600052602060002090601f01602090048101928262000126576000855562000172565b82601f106200014157805160ff191683800117855562000172565b8280016001018555821562000172579182015b828111156200017157825182559160200191906001019062000154565b5b50905062000181919062000185565b5090565b5b80821115620001a057600081600090555060010162000186565b5090565b6000604051905090565b600080fd5b600080fd5b600073ffffffffffffffffffffffffffffffffffffffff82169050919050565b6000620001e582620001b8565b9050919050565b620001f781620001d8565b81146200020357600080fd5b50565b6000815190506200021781620001ec565b92915050565b600080fd5b600080fd5b6000601f19601f8301169050919050565b7f4e487b7100000000000000000000000000000000000000000000000000000000600052604160045260246000fd5b620002728262000227565b810181811067ffffffffffffffff8211171562000294576200029362000238565b5b80604052505050565b6000620002a9620001a4565b9050620002b7828262000267565b919050565b600067ffffffffffffffff821115620002da57620002d962000238565b5b620002e58262000227565b9050602081019050919050565b60005b8381101562000312578082015181840152602081019050620002f5565b8381111562000322576000848401525b50505050565b60006200033f6200033984620002bc565b6200029d565b9050828152602081018484840111156200035e576200035d62000222565b5b6200036b848285620002f2565b509392505050565b600082601f8301126200038b576200038a6200021d565b5b81516200039d84826020860162000328565b91505092915050565b6000819050919050565b620003bb81620003a6565b8114620003c757600080fd5b50565b600081519050620003db81620003b0565b92915050565b6000620003ee82620001d8565b9050919050565b6200040081620003e1565b81146200040c57600080fd5b50565b6000815190506200042081620003f5565b92915050565b6000819050919050565b6200043b8162000426565b81146200044757600080fd5b50565b6000815190506200045b8162000430565b92915050565b60008060008060008060c08789031215620004815762000480620001ae565b5b60006200049189828a0162000206565b965050602087015167ffffffffffffffff811115620004b557620004b4620001b3565b5b620004c389828a0162000373565b9550506040620004d689828a01620003ca565b9450506060620004e989828a016200040f565b9350506080620004fc89828a016200044a565b92505060a06200050f89828a016200044a565b9150509295509295509295565b7f4e487b7100000000000000000000000000000000000000000000000000000000600052602260045260246000fd5b600060028204905060018216806200056457607f821691505b6020821081036200057a57620005796200051c565b5b50919050565b608051611b646200059c60003960006109c50152611b646000f3fe608060405234801561001057600080fd5b506004361061014d5760003560e01c8063918437cb116100c3578063c1e608121161007c578063c1e6081214610380578063c342ca6b1461039e578063ca7bf28d146103ce578063d547741f146103ec578063dfedacb314610408578063e97283ca146104265761014d565b8063918437cb146102ba57806391d14854146102d857806396167d1b14610308578063a217fddf14610326578063b2bdfa7b14610344578063b2d7631c146103625761014d565b80633bf2a9f4116101155780633bf2a9f414610208578063463f06a1146102265780636d3491ec146102445780637b6e731c146102625780637e1e108b1461026c5780638da5cb5b1461029c5761014d565b806301ffc9a7146101525780632241862b14610182578063248a9ca3146101a05780632f2ff15d146101d057806336568abe146101ec575b600080fd5b61016c60048036038101906101679190611214565b610444565b604051610179919061125c565b60405180910390f35b61018a6104be565b6040516101979190611290565b60405180910390f35b6101ba60048036038101906101b591906112d7565b6104e2565b6040516101c79190611290565b60405180910390f35b6101ea60048036038101906101e59190611362565b610501565b005b61020660048036038101906102019190611362565b610522565b005b6102106105a5565b60405161021d9190611290565b60405180910390f35b61022e6105c9565b60405161023b919061143b565b60405180910390f35b61024c61065b565b6040516102599190611290565b60405180910390f35b61026a61067f565b005b61028660048036038101906102819190611493565b61070e565b604051610293919061125c565b60405180910390f35b6102a461099b565b6040516102b191906114e2565b60405180910390f35b6102c26109c1565b6040516102cf9190611290565b60405180910390f35b6102f260048036038101906102ed9190611362565b6109e9565b6040516102ff919061125c565b60405180910390f35b610310610a53565b60405161031d9190611290565b60405180910390f35b61032e610a77565b60405161033b9190611290565b60405180910390f35b61034c610a7e565b60405161035991906114e2565b60405180910390f35b61036a610aa8565b604051610377919061150c565b60405180910390f35b610388610ab2565b6040516103959190611290565b60405180910390f35b6103b860048036038101906103b39190611527565b610ad6565b6040516103c5919061125c565b60405180910390f35b6103d6610c0f565b6040516103e3919061150c565b60405180910390f35b61040660048036038101906104019190611362565b610c19565b005b610410610c3a565b60405161041d9190611290565b60405180910390f35b61042e610c5e565b60405161043b9190611290565b60405180910390f35b60007f7965db0b000000000000000000000000000000000000000000000000000000007bffffffffffffffffffffffffffffffffffffffffffffffffffffffff1916827bffffffffffffffffffffffffffffffffffffffffffffffffffffffff191614806104b757506104b682610c82565b5b9050919050565b7f0a6437be3d409e943b51a5a15faa0c00efa44eb7c8b707f3502502a406f3c7f881565b6000806000838152602001908152602001600020600101549050919050565b61050a826104e2565b61051381610cec565b61051d8383610d00565b505050565b61052a610de0565b73ffffffffffffffffffffffffffffffffffffffff168173ffffffffffffffffffffffffffffffffffffffff1614610597576040517f08c379a000000000000000000000000000000000000000000000000000000000815260040161058e906115c6565b60405180910390fd5b6105a18282610de8565b5050565b7fd7aa2ddfa4e381128202bf365b7e0a176f2fca6cdf2f23c2b0a6f4393769589081565b6060600180546105d890611615565b80601f016020809104026020016040519081016040528092919081815260200182805461060490611615565b80156106515780601f1061062657610100808354040283529160200191610651565b820191906000526020600020905b81548152906001019060200180831161063457829003601f168201915b5050505050905090565b7f067a7283e9fa435a2cc6bf2bc9d402b66be84693c88be7e59ff28ee68238b50581565b600260009054906101000a900473ffffffffffffffffffffffffffffffffffffffff1673ffffffffffffffffffffffffffffffffffffffff1663d95b0bd9306040518263ffffffff1660e01b81526004016106da91906114e2565b600060405180830381600087803b1580156106f457600080fd5b505af1158015610708573d6000803e3d6000fd5b50505050565b600061073a7f067a7283e9fa435a2cc6bf2bc9d402b66be84693c88be7e59ff28ee68238b505846109e9565b610779576040517f08c379a000000000000000000000000000000000000000000000000000000000815260040161077090611692565b60405180910390fd5b6000600260009054906101000a900473ffffffffffffffffffffffffffffffffffffffff1673ffffffffffffffffffffffffffffffffffffffff1663506f3dd5306040518263ffffffff1660e01b81526004016107d691906114e2565b602060405180830381865afa1580156107f3573d6000803e3d6000fd5b505050506040513d601f19601f8201168201806040525081019061081791906116c7565b90506000600260009054906101000a900473ffffffffffffffffffffffffffffffffffffffff1673ffffffffffffffffffffffffffffffffffffffff1663b5da73a86040518163ffffffff1660e01b8152600401602060405180830381865afa158015610888573d6000803e3d6000fd5b505050506040513d601f19601f820116820180604052508101906108ac91906116c7565b9050808210156108f1576040517f08c379a00000000000000000000000000000000000000000000000000000000081526004016108e890611740565b60405180910390fd5b600260009054906101000a900473ffffffffffffffffffffffffffffffffffffffff1673ffffffffffffffffffffffffffffffffffffffff166398c28a3986866040518363ffffffff1660e01b815260040161094e929190611760565b6020604051808303816000875af115801561096d573d6000803e3d6000fd5b505050506040513d601f19601f8201168201806040525081019061099191906117b5565b9250505092915050565b600560009054906101000a900473ffffffffffffffffffffffffffffffffffffffff1681565b60007f0000000000000000000000000000000000000000000000000000000000000000905090565b600080600084815260200190815260200160002060000160008373ffffffffffffffffffffffffffffffffffffffff1673ffffffffffffffffffffffffffffffffffffffff16815260200190815260200160002060009054906101000a900460ff16905092915050565b7fa51b6b45fbf50a47b1a527fdd6887d77c11bd552d6841fb0dad35c15e3adbd1181565b6000801b81565b6000600560009054906101000a900473ffffffffffffffffffffffffffffffffffffffff16905090565b6000600454905090565b7f67ece15bd133b11598a907fb44de3d08dcf88cadd66731837f0274813fae477481565b6000600560009054906101000a900473ffffffffffffffffffffffffffffffffffffffff1673ffffffffffffffffffffffffffffffffffffffff163373ffffffffffffffffffffffffffffffffffffffff1614610b68576040517f08c379a0000000000000000000000000000000000000000000000000000000008152600401610b5f9061182e565b60405180910390fd5b600260009054906101000a900473ffffffffffffffffffffffffffffffffffffffff1673ffffffffffffffffffffffffffffffffffffffff16632069b32530846040518363ffffffff1660e01b8152600401610bc5929190611760565b6020604051808303816000875af1158015610be4573d6000803e3d6000fd5b505050506040513d601f19601f82011682018060405250810190610c0891906117b5565b9050919050565b6000600354905090565b610c22826104e2565b610c2b81610cec565b610c358383610de8565b505050565b7f8c033fe0d299513a093a57259d2aadd8834281ceab2965b2eba7e0666f08c6bb81565b7f85fc32380ab4247f891d38c2dfc69761709c5069b06e5700b787d65c3428817f81565b60007f01ffc9a7000000000000000000000000000000000000000000000000000000007bffffffffffffffffffffffffffffffffffffffffffffffffffffffff1916827bffffffffffffffffffffffffffffffffffffffffffffffffffffffff1916149050919050565b610cfd81610cf8610de0565b610ec9565b50565b610d0a82826109e9565b610ddc57600160008084815260200190815260200160002060000160008373ffffffffffffffffffffffffffffffffffffffff1673ffffffffffffffffffffffffffffffffffffffff16815260200190815260200160002060006101000a81548160ff021916908315150217905550610d81610de0565b73ffffffffffffffffffffffffffffffffffffffff168173ffffffffffffffffffffffffffffffffffffffff16837f2f8788117e7eff1d82e926ec794901d17c78024a50270940304540a733656f0d60405160405180910390a45b5050565b600033905090565b610df282826109e9565b15610ec557600080600084815260200190815260200160002060000160008373ffffffffffffffffffffffffffffffffffffffff1673ffffffffffffffffffffffffffffffffffffffff16815260200190815260200160002060006101000a81548160ff021916908315150217905550610e6a610de0565b73ffffffffffffffffffffffffffffffffffffffff168173ffffffffffffffffffffffffffffffffffffffff16837ff6391f5c32d9c69d2a47ea670b442974b53935d1edc7fd64eb21e047a839171b60405160405180910390a45b5050565b610ed382826109e9565b610f4a57610ee081610f4e565b610eee8360001c6020610f7b565b604051602001610eff929190611922565b6040516020818303038152906040526040517f08c379a0000000000000000000000000000000000000000000000000000000008152600401610f41919061143b565b60405180910390fd5b5050565b6060610f748273ffffffffffffffffffffffffffffffffffffffff16601460ff16610f7b565b9050919050565b606060006002836002610f8e919061198b565b610f9891906119e5565b67ffffffffffffffff811115610fb157610fb0611a3b565b5b6040519080825280601f01601f191660200182016040528015610fe35781602001600182028036833780820191505090505b5090507f30000000000000000000000000000000000000000000000000000000000000008160008151811061101b5761101a611a6a565b5b60200101907effffffffffffffffffffffffffffffffffffffffffffffffffffffffffffff1916908160001a9053507f78000000000000000000000000000000000000000000000000000000000000008160018151811061107f5761107e611a6a565b5b60200101907effffffffffffffffffffffffffffffffffffffffffffffffffffffffffffff1916908160001a905350600060018460026110bf919061198b565b6110c991906119e5565b90505b6001811115611169577f3031323334353637383961626364656600000000000000000000000000000000600f86166010811061110b5761110a611a6a565b5b1a60f81b82828151811061112257611121611a6a565b5b60200101907effffffffffffffffffffffffffffffffffffffffffffffffffffffffffffff1916908160001a905350600485901c94508061116290611a99565b90506110cc565b50600084146111ad576040517f08c379a00000000000000000000000000000000000000000000000000000000081526004016111a490611b0e565b60405180910390fd5b8091505092915050565b600080fd5b60007fffffffff0000000000000000000000000000000000000000000000000000000082169050919050565b6111f1816111bc565b81146111fc57600080fd5b50565b60008135905061120e816111e8565b92915050565b60006020828403121561122a576112296111b7565b5b6000611238848285016111ff565b91505092915050565b60008115159050919050565b61125681611241565b82525050565b6000602082019050611271600083018461124d565b92915050565b6000819050919050565b61128a81611277565b82525050565b60006020820190506112a56000830184611281565b92915050565b6112b481611277565b81146112bf57600080fd5b50565b6000813590506112d1816112ab565b92915050565b6000602082840312156112ed576112ec6111b7565b5b60006112fb848285016112c2565b91505092915050565b600073ffffffffffffffffffffffffffffffffffffffff82169050919050565b600061132f82611304565b9050919050565b61133f81611324565b811461134a57600080fd5b50565b60008135905061135c81611336565b92915050565b60008060408385031215611379576113786111b7565b5b6000611387858286016112c2565b92505060206113988582860161134d565b9150509250929050565b600081519050919050565b600082825260208201905092915050565b60005b838110156113dc5780820151818401526020810190506113c1565b838111156113eb576000848401525b50505050565b6000601f19601f8301169050919050565b600061140d826113a2565b61141781856113ad565b93506114278185602086016113be565b611430816113f1565b840191505092915050565b600060208201905081810360008301526114558184611402565b905092915050565b6000819050919050565b6114708161145d565b811461147b57600080fd5b50565b60008135905061148d81611467565b92915050565b600080604083850312156114aa576114a96111b7565b5b60006114b88582860161134d565b92505060206114c98582860161147e565b9150509250929050565b6114dc81611324565b82525050565b60006020820190506114f760008301846114d3565b92915050565b6115068161145d565b82525050565b600060208201905061152160008301846114fd565b92915050565b60006020828403121561153d5761153c6111b7565b5b600061154b8482850161147e565b91505092915050565b7f416363657373436f6e74726f6c3a2063616e206f6e6c792072656e6f756e636560008201527f20726f6c657320666f722073656c660000000000000000000000000000000000602082015250565b60006115b0602f836113ad565b91506115bb82611554565b604082019050919050565b600060208201905081810360008301526115df816115a3565b9050919050565b7f4e487b7100000000000000000000000000000000000000000000000000000000600052602260045260246000fd5b6000600282049050600182168061162d57607f821691505b6020821081036116405761163f6115e6565b5b50919050565b7f4e6f7420696e6475737472790000000000000000000000000000000000000000600082015250565b600061167c600c836113ad565b915061168782611646565b602082019050919050565b600060208201905081810360008301526116ab8161166f565b9050919050565b6000815190506116c181611467565b92915050565b6000602082840312156116dd576116dc6111b7565b5b60006116eb848285016116b2565b91505092915050565b7f63616e6e6f7420676f2062656c6f77207468726573686f6c6400000000000000600082015250565b600061172a6019836113ad565b9150611735826116f4565b602082019050919050565b600060208201905081810360008301526117598161171d565b9050919050565b600060408201905061177560008301856114d3565b61178260208301846114fd565b9392505050565b61179281611241565b811461179d57600080fd5b50565b6000815190506117af81611789565b92915050565b6000602082840312156117cb576117ca6111b7565b5b60006117d9848285016117a0565b91505092915050565b7f4e6f74206f776e65720000000000000000000000000000000000000000000000600082015250565b60006118186009836113ad565b9150611823826117e2565b602082019050919050565b600060208201905081810360008301526118478161180b565b9050919050565b600081905092915050565b7f416363657373436f6e74726f6c3a206163636f756e7420000000000000000000600082015250565b600061188f60178361184e565b915061189a82611859565b601782019050919050565b60006118b0826113a2565b6118ba818561184e565b93506118ca8185602086016113be565b80840191505092915050565b7f206973206d697373696e6720726f6c6520000000000000000000000000000000600082015250565b600061190c60118361184e565b9150611917826118d6565b601182019050919050565b600061192d82611882565b915061193982856118a5565b9150611944826118ff565b915061195082846118a5565b91508190509392505050565b7f4e487b7100000000000000000000000000000000000000000000000000000000600052601160045260246000fd5b60006119968261145d565b91506119a18361145d565b9250817fffffffffffffffffffffffffffffffffffffffffffffffffffffffffffffffff04831182151516156119da576119d961195c565b5b828202905092915050565b60006119f08261145d565b91506119fb8361145d565b9250827fffffffffffffffffffffffffffffffffffffffffffffffffffffffffffffffff03821115611a3057611a2f61195c565b5b828201905092915050565b7f4e487b7100000000000000000000000000000000000000000000000000000000600052604160045260246000fd5b7f4e487b7100000000000000000000000000000000000000000000000000000000600052603260045260246000fd5b6000611aa48261145d565b915060008203611ab757611ab661195c565b5b600182039050919050565b7f537472696e67733a20686578206c656e67746820696e73756666696369656e74600082015250565b6000611af86020836113ad565b9150611b0382611ac2565b602082019050919050565b60006020820190508181036000830152611b2781611aeb565b905091905056fea2646970667358221220a141ff833ad9e52254fc9deb2bde040afdc90f70c1e7cdb1d4301a1cdad0253c64736f6c634300080e0033a2646970667358221220f2ebeac51d46331aec545d463b1e450de8fa4e614e77cb8b0682c266b6ad0af064736f6c634300080e0033",
  "immutableReferences": {},
  "source": "// SPDX-License-Identifier: MIT\npragma solidity ^0.8.0;\nimport \"@openzeppelin/contracts/access/AccessControl.sol\";\nimport \"@openzeppelin/contracts/utils/Counters.sol\";\nimport \"./Indus_s.sol\";\nimport \"./gov.sol\";\n\ncontract Industry_factory is Gov_side {\n    constructor(CoTax tkn) Gov_side(tkn) {}\n    Gov_side private _govAdd;\n    uint256 private total_comp;\n    mapping(uint256 => comp_data) private deployed_comp;\n    event New_comp(\n        uint256 id,\n        string indexed name,\n        bytes32 indexed typeOf,\n        uint256 indexed time\n    );\n\n    function Create_new_comp(\n        string memory _comp_name,\n        bytes32 _comp_type,\n        uint256 _total_emision\n    ) public returns (address) {\n        require(verify_indus(_comp_type));\n        uint256 comp_Id = total_comp++;\n        comp_data storage new_comp = deployed_comp[comp_Id];\n        new_comp.owner=msg.sender;\n        new_comp.comp_name = _comp_name;\n        new_comp.comp_type = _comp_type;\n        new_comp.total_emision = _total_emision;\n        new_comp.comp_contract_address = address(\n            new Indus_side(\n                msg.sender,\n                _comp_name,\n                _comp_type,\n                _govAdd,\n                new_comp.time_stamp,\n                _total_emision\n            )\n        );\n        new_comp.time_stamp = block.timestamp;\n        emit New_comp(comp_Id, _comp_name, _comp_type, block.timestamp);\n        return new_comp.comp_contract_address;\n    }\n\n    function get_all_comp() public view returns (comp_data[] memory data) {\n        data = new comp_data[](total_comp);\n        for (uint256 i = 0; i < total_comp; i++) {\n            data[i] = deployed_comp[i];\n        }\n    }\n}\n",
  "sourcePath": "/Users/yaksheshgupta/Desktop/TRINIT_teamLite_WEB01/BACKEND/contracts/Industry_factory.sol",
  "compiler": {
    "name": "solc",
    "version": "0.8.14+commit.80d49f37.Emscripten.clang"
  },
  "schemaVersion": "3.4.7",
  "updatedAt": "2023-02-11T23:43:07.677Z",
  "networkType": "ethereum",
  "devdoc": {
    "kind": "dev",
    "methods": {
      "getRoleAdmin(bytes32)": {
        "details": "Returns the admin role that controls `role`. See {grantRole} and {revokeRole}. To change a role's admin, use {_setRoleAdmin}."
      },
      "grantRole(bytes32,address)": {
        "details": "Grants `role` to `account`. If `account` had not been already granted `role`, emits a {RoleGranted} event. Requirements: - the caller must have ``role``'s admin role. May emit a {RoleGranted} event."
      },
      "hasRole(bytes32,address)": {
        "details": "Returns `true` if `account` has been granted `role`."
      },
      "renounceRole(bytes32,address)": {
        "details": "Revokes `role` from the calling account. Roles are often managed via {grantRole} and {revokeRole}: this function's purpose is to provide a mechanism for accounts to lose their privileges if they are compromised (such as when a trusted device is misplaced). If the calling account had been revoked `role`, emits a {RoleRevoked} event. Requirements: - the caller must be `account`. May emit a {RoleRevoked} event."
      },
      "revokeRole(bytes32,address)": {
        "details": "Revokes `role` from `account`. If `account` had been granted `role`, emits a {RoleRevoked} event. Requirements: - the caller must have ``role``'s admin role. May emit a {RoleRevoked} event."
      },
      "supportsInterface(bytes4)": {
        "details": "See {IERC165-supportsInterface}."
      }
    },
    "version": 1
  },
  "userdoc": {
    "kind": "user",
    "methods": {
      "carbon_caps(bytes32)": {
        "notice": "carbon_caps is used to store diffrent carbon caps for each industry"
      }
    },
    "version": 1
  }
}